:100000000C9409010C9412050C9432050C946F06A3
:100010000C940D060C9426010C9426010C942601D8
:100020000C9426010C9426010C942F080C942601A4
:100030000C9426010C944F0E0C9426010C9426016E
:100040000C9426010C9426010C9426010C94260194
:100050000C94260154686520526F626F74206E659F
:1000600065647320746F20626520726573657474B3
:100070006564206E6F772E0A0A00596F75206E65D1
:10008000656420746F20636865636B204D6F746FC7
:100090007220617373656D626C7920286F722079AC
:1000A0006F757220736F667477617265292E0A0A04
:1000B000000A0A28732E207461736B5F6D6F746F72
:1000C00072436F6E74726F6C28292066756E63744C
:1000D000696F6E20696E205250364C696221290A80
:1000E000000A0A232323204D4F544F52204F5645D8
:1000F0005243555252454E54202323230A00596F30
:1001000075206E65656420746F20636865636B207D
:10011000456E636F6465722F4D6F746F72206173EB
:1001200073656D626C7920286F7220796F7572200B
:10013000736F667477617265292E0A0A00210A0AB4
:1001400028732E207461736B5F6D6F746F72436FD1
:100150006E74726F6C28292066756E6374696F6E99
:1001600020696E205250364C696221290A0052499A
:10017000474854004C4546540041666665637465C3
:1001800064206368616E6E656C3A000A2323232045
:10019000454E434F44455220284F52204D4F544F17
:1001A0005229204D414C46554E4354494F4E212033
:1001B0002323230A00232323232320414C4C204FB5
:1001C0005045524154494F4E532053544F5050457F
:1001D0004420544F2050524556454E5420414E59CC
:1001E0002044414D414745212023232323230A0056
:1001F0000A0A232323232320454D455247454E43D6
:10020000592053485554444F574E2023232323232A
:100210000A0011241FBECFE5D8E0DEBFCDBF10E03D
:10022000A0E6B0E0E8EFF1E202C005900D92A03741
:10023000B107D9F711E0A0E7B0E001C01D92A033EB
:10024000B107E1F70E94C9030C94FA100C94000066
:10025000089580917B00843009F46FC0853048F4A4
:10026000823061F1833008F050C0813009F0C1C0A4
:100270000AC0863009F495C0863008F475C087300E
:1002800009F0B7C0B0C088E2809376008091780012
:100290008C7F85608093780020918A00243018F04C
:1002A0008CED90E002C080EA90E090937A00809319
:1002B000790082E080937B002E5F70C020917800EF
:1002C00022FD97C08EE18093760080918A00843071
:1002D00060F084E690E090937A0080937900236048
:1002E0002093780010928A000AC02C7F226020930D
:1002F000780086E490E090937A0080937900809172
:1003000078008860809378006AC088E280937600E5
:10031000809178008C7F85608093780020918A009E
:10032000243018F08EEB90E002C086E990E09093C4
:100330007A008093790084E02EC09091780092FD3D
:1003400058C08EE1809376009B60909378008091F6
:100350008A008430F0F18EE690E090937A008093EA
:10036000790010928A00089588E280937600809147
:1003700078008C7F85608093780020918A002430FB
:1003800018F08EEB90E002C086E990E090937A003E
:100390008093790086E080937B002F5F20938A0012
:1003A00008959091780092FD24C08EE180937600AC
:1003B0009C7F9A609093780080918A00843048F006
:1003C0008EE690E090937A008093790010928A00F4
:1003D00006C080E590E090937A008093790087E0F2
:1003E00080937B000895809178008C7011F41092B6
:1003F0007B0008958091A70090910401882361F00B
:10040000992311F081E005C080917B00823069F072
:1004100083E080937B000895992339F080917B00DD
:10042000823019F085E080937B00089580918100EF
:10043000823009F47AC0833030F4882351F081305F
:1004400009F0B6C04DC08330C9F0853009F0B0C0A6
:100450009DC09091EF00992331F08091E6008823B0
:1004600011F083E03AC08091E600882311F082E029
:1004700034C0992309F49CC081E02FC0909166009C
:10048000937080917E008C7F892B80937E008EE11B
:1004900080937C0080937D008091E600882309F0A2
:1004A00087C08091EF00882309F082C08091890085
:1004B000843038F0109289001092DC001092DB003A
:1004C00006C080E991E09093DC008093DB0080918E
:1004D000D40088608093D40085E0809381000895E3
:1004E00080917E008C7F80937E008EE180937C00E3
:1004F00088E280937D008091EF00882331F0809125
:10050000E600882381F083E00CC084EF91E09093B3
:10051000DC008093DB008091D40088608093D4005D
:1005200085E08093810083E029C080917E008C7FEC
:1005300080937E0088E280937C008EE180937D0032
:100540008091EF00882339F08091E600882319F02C
:1005500083E0809381008091E600882371F484EF2A
:1005600091E09093DC008093DB008091D400886060
:100570008093D40085E08093810082E080936600C0
:10058000809189008F5F8093890008958091DB00BE
:100590009091DC00895E934058F08091D400877F71
:1005A0008093D4001092DC001092DB001092810046
:1005B00008959BBD8ABD80E188BF1DBC1CBC8AE03C
:1005C0008EBD089508B604FEFDCF88E08EBD089567
:1005D00080E281BB1FBC88E08EBD089580E281BBB4
:1005E00082BB87E090E09BBD8ABD80E188BF1DBCD7
:1005F0001CBC8AE08EBD08B604FEFDCF88E08EBD2F
:1006000012BA089511BA859BFECF1DBC1CBC82E0B6
:100610008EBD8599FECF88E08EBD8CB59DB564E713
:1006200070E00E948010862F90E008950E940203DF
:10063000892B19F083E080937B00089580918700D7
:10064000833019F08530C1F525C0809184008C7FFE
:100650008260809384008EE1809382008093830087
:1006600080918800843038F0109288001092DC006D
:100670001092DB00089580E991E09093DC00809374
:10068000DB008091D40088608093D40085E0809363
:10069000810008958091DB009091DC00895E934099
:1006A00058F08091D400877F8093D4001092DC00B2
:1006B0001092DB001092810008951F93CF93DF9377
:1006C000EC014B815C816A814115510521F163FF89
:1006D00006C06370888120E00E940E0D19C062FF81
:1006E00017C0162F1370BA0180E090E00E94D30F5C
:1006F0002FE832EC45E75EE30E943F0F0E94A70F10
:100700009B01AC018881612FA90120E00E94910D1D
:100710001C821B8213C0862F8C7049F4862F837035
:100720000E946705888169810E94580507C00E9460
:10073000A305882319F08A81837F8A83DF91CF9173
:100740001F9108950E9416020E9429010E941E0313
:1007500080917B00882319F086E790E017C0809194
:100760008100882319F08CE790E010C0809165002B
:10077000882319F080E690E009C0809187008823E3
:1007800019F082E890E002C080E790E00E945D03EB
:1007900008950E94170A8FE30E945F0484EC99E099
:1007A0000E94FD0984E20E945F0480E281BB1FBCBD
:1007B00088E08EBD0E9416038AEF91E00E947F04BC
:1007C0008DEE93E00E949B060E9414080E940A0886
:1007D0000E94A2030E94050DFBCF2091E600222378
:1007E00041F08091EF00882321F084E28093A600FD
:1007F00002C01092A600922F91709295907F8091E6
:10080000A6008F7E892B8093A60030E0222309F476
:1008100031E0330F330F330F8091A600857F209195
:10082000EF00922F9170990F832B892B8093A60054
:1008300090E0222309F491E08091A6008E7F892B1D
:100840008093A6000E94300408958091BB008430FC
:1008500010F01092BB00089584E08093BB000895CF
:1008600087B38C7787BB88B38C7788BB8091A600D1
:1008700083FF02C0BF9AC79A84FF02C0B99AC19A87
:1008800085FF02C0B89AC09A84B38F7884BB85B3C1
:100890008F7885BB94B32091A600822F82958077B4
:1008A000982B94BB95B3892B85BB8091BB00882383
:1008B00019F4822F211181E08093BB000895809369
:1008C000A6000E9430040895C098B898000096B31E
:1008D0008091A60085FF02C0B89AC09A892F8170C6
:1008E0000895AE98A698000093B38091A60082FF69
:1008F00002C0A69AAE9A892F8074089508959093A5
:100900006F0080936E0008951F938091F3008333EE
:10091000C8F00E946404182F0E947104982F8091DF
:10092000A700811721F480910401891749F01093E1
:10093000A70090930401E0916E00F0916F0009957B
:100940001092F3001F910895369B03C020E030E021
:1009500009C0806487B986ED86B93699FECF349A8E
:1009600024B135B1C9010895806487B986ED86B98F
:100970000895369956C020919C00233039F12430D7
:1009800028F4213099F02230C8F408C0253089F1CC
:10099000253020F1263009F041C033C084B195B133
:1009A000909308018093070186E41FC084B195B13C
:1009B00090930D0180930C0185E417C084B195B12B
:1009C0009093FE008093FD0083E40FC084B195B145
:1009D0009093C7008093C60082E407C084B195B1AC
:1009E0009093ED008093EC0080E487B986ED86B9A2
:1009F00015C084B195B19093FB008093FA0081E417
:100A0000F4CF84B195B19093C5008093C40087E47E
:100A100087B986ED86B910929C0008952F5F2093C8
:100A20009C0008951F920F920FB60F9211248F937E
:100A30009F9380910201909103010196909303018D
:100A4000809302018091F8009091F90001969093B3
:100A5000F9008093F8009F918F910F900FBE0F9037
:100A60001F9018951F920F920FB60F9211248F931B
:100A70009F938091F4009091F50001969093F5007A
:100A80008093F4008091CE009091CF0001969093D6
:100A9000CF008093CE009F918F910F900FBE0F904B
:100AA0001F901895089590936D0080936C000895A1
:100AB000893C08F088EC8093AC001092AD00693C52
:100AC00008F068EC6093AA001092AB000895282FFC
:100AD00080938F0010928B008150823018F481E057
:100AE00080938B00213021F080E090E0233011F4DE
:100AF00081E090E080938C0008959C0110928B001F
:100B000097FF03C081E080938B0010928C0077FFE9
:100B100003C081E080938C001216130614F4822F18
:100B200003C0822F81956195893C08F088EC809301
:100B3000AC001092AD00693C08F068EC6093AA002C
:100B40001092AB00089590E08091A500837009F4A5
:100B500091E0892F08951092AD001092AC00109290
:100B6000AB001092AA001092B7001092B60010923B
:100B7000F2001092F1008091A5008C7F8093A50077
:100B800080930601E0916C00F0916D000995089545
:100B9000633D08F062ED6093CC001092CD00833D80
:100BA00008F082ED8093BC001092BD000895809300
:100BB0008D0060938E0080938B0060938C0088235F
:100BC00011F0AA9A01C0AA98662311F0AB9A089571
:100BD000AB980895982F03C089B7806889BF80912A
:100BE000B1008823C9F7892F90E08F73907026E0B9
:100BF000880F991F2A95E1F7262F30E02F73307068
:100C0000822B932B90639093D1008093D00080919E
:100C1000B00080648093B00008951F920F920FB6C9
:100C20000F9211242F938F939F93809167008230AE
:100C3000B0F520919B002223C1F02C3338F4809131
:100C4000EA009091EB0096FF07C008C08091EA008F
:100C50009091EB0096FF02C0979803C082B3805832
:100C600082BB215020939B0032C08091B100882329
:100C7000A1F097988091EA009091EB00880F991F5E
:100C80009093EB008093EA0088E780939B0080912B
:100C9000B10081508093B1001AC0979818C080911C
:100CA000B500882391F08091B00080FD05C088B325
:100CB00090E4892788BB03C085B3805885BB8091A9
:100CC000B50081508093B50002C0C69AAF9A9F913B
:100CD0008F912F910F900FBE0F901F9018951F921C
:100CE0000F920FB60F9211248F938091670083307B
:100CF00011F0863069F48091B00084FD09C085FF51
:100D000007C0B29905C0809105018F5F80930501EE
:100D100086B38091B0008D7F8093B0008F910F904B
:100D20000FBE0F901F9018950895909369008093BF
:100D300068000895089590936B0080936A00089569
:100D40008091C8009091C900029708F43BC190912E
:100D5000B00094FD16C180916700823009F467C02D
:100D6000833030F4882371F0813009F010C111C054
:100D7000853009F4ACC0863009F4C1C0833009F075
:100D800006C16DC089B78F7789BF9798C69AAF9A09
:100D9000FEC08091B100882341F596FF14C0809178
:100DA000D0009091D1009093EB008093EA008EE008
:100DB0008093B1008091B0008F7B8093B00089B7A1
:100DC000806889BF06C089B78F7789BF9798C69A10
:100DD000AF9A80919A008F5F80939A0081508431FE
:100DE00038F082E08093670003C089B7806889BFCC
:100DF0008091B00083FFCBC0E0916800F091690062
:100E00008091090190910A010995809109019091C1
:100E10000A019093B9008093B80010920A011092D1
:100E200009018091B000877F8093B000B0C089B77E
:100E30008F7789BF9798C69AAF9A1092B500109293
:100E4000050110929900109298008091B0008E7F59
:100E500080628093B00083E080939A0075C0809197
:100E6000B500882381F480919A008F5F80939A0067
:100E70008150833040F089B7806889BF88E28093D1
:100E8000B50010929A008091E600882321F08091AD
:100E90000501823020F480910501863038F01092EF
:100EA000050181E08093E60085E04EC080919800C6
:100EB00090919900019690939900809398000197E2
:100EC0000E9708F464C01092E60085E04FC089B721
:100ED0008F7789BF9798C69AAF9A1092B5001092F3
:100EE000050110929900109298008091B0008162E3
:100EF0008093B00083E080939A0086E025C08091C3
:100F0000B500882381F480919A008F5F80939A00C6
:100F10008150833040F089B7806889BF88E2809330
:100F2000B50010929A008091EF00882321F0809103
:100F30000501823020F480910501863040F0109246
:100F4000050181E08093EF008093670020C08091CD
:100F50009800909199000196909399008093980041
:100F600001970E97A0F01092EF0081E08093670048
:100F700089B78F7789BF9798C69AAF9A1092B500B4
:100F800006C0109299001092980010929A00209139
:100F9000E60080919700821731F49091960080913D
:100FA000EF00981759F0209397008091EF008093FD
:100FB0009600E0916A00F0916B0009951092C900CB
:100FC0001092C80008951092670089B78F7789BF83
:100FD0009798C69AAF9A1092EF001092E600089583
:100FE00089B78F7789BF9798C69AAF9A1092EF000A
:100FF0001092E60081E08093670008958E9896989D
:10100000BB98C398C698AF9808958E9A969ABB9845
:10101000C39808958E989698BB9AC39A08958E9A0D
:10102000969ABB9AC39A0895C49A8091BB00843063
:1010300018F483E08093BB000895C4988091BB00AE
:10104000843060F4882331F420E030E08091A60001
:10105000882311F021E030E02093BB0008951F9217
:101060000F920FB60F9211242F933F934F935F93DC
:101070006F937F938F939F93AF93BF938091A300C0
:101080009091A40001969093A4008093A300809176
:10109000FC008F5F8093FC008091FF008F5F809346
:1010A000FF008150893008F447C18091D40080FF4F
:1010B00009C08091D5009091D60001969093D600FA
:1010C0008093D5008091D40081FF09C08091D70022
:1010D0009091D80001969093D8008093D70080918A
:1010E000D40082FF09C08091D9009091DA00019666
:1010F0009093DA008093D9008091D40083FF09C0D7
:101100008091DB009091DC0001969093DC0080934D
:10111000DB008091D40084FF09C08091DD009091B4
:10112000DE0001969093DE008093DD008091D40074
:1011300085FF09C08091DF009091E00001969093B7
:10114000E0008093DF008091D40086FF09C0809189
:10115000E1009091E20001969093E2008093E1001B
:101160008091D40087FF09C08091E3009091E40052
:1011700001969093E4008093E3008091F0008F5FEC
:101180008093F0008150893CE8F08091CE009091EE
:10119000CF0090930101809300018091F80090911D
:1011A000F9009093BF008093BE001092CF00109280
:1011B000CE001092F9001092F80081E08093BA00FE
:1011C0001092F0004091BB00433008F052C0423012
:1011D00081F58091A600882301F58091940090917B
:1011E00095009C012F5F3F4F309395002093940012
:1011F00068EC70E00E948010892BD9F5215A3F409D
:1012000028F0B998C1981092BB0029C087B38427F1
:1012100087BB88B3842788BB2CC084FD02C0B998E3
:10122000C198109295001092940081E08093BB00C9
:1012300020C080919400909195002EE2813E92070B
:1012400098F0413049F41092BB008091A60084FDD3
:1012500006C0B998C19803C082E08093BB00109289
:1012600095001092940005C001969093950080938C
:1012700094008091C8009091C900039748F4809130
:10128000C8009091C90001969093C9008093C8004E
:101290008091E800873318F48F5F8093E800809195
:1012A000F300843328F48091F3008F5F8093F30080
:1012B0008091EE008F5F8093EE0081508330D0F1FB
:1012C0008091E900482F50E02091CC003091CD0072
:1012D0004217530759F04217530714F48F5F01C0A8
:1012E00081508093E9008091E9008ABD80910B01D3
:1012F000482F50E02091BC003091BD0042175307A9
:1013000059F04217530714F48F5F01C08150809346
:101310000B0180910B0188BD80910B01882321F482
:101320008091E900882319F082EA8FBD01C01FBCBB
:101330001092EE001092FF008091B00083FD46C035
:101340002091900030919100409192004F5F409326
:101350009200463190F036FD09C035FF07C030934A
:101360000A012093090188608093B0008091B00049
:101370008F7E8093B00020E030E09091930086B3A0
:10138000892782FF1FC0909590939300473040F4C7
:101390008091B0008F7E8093B00020E030E005C0E7
:1013A0002115310511F04F3068F08091B000806157
:1013B0008093B00036FD02C0220F331F92FF2160E0
:1013C000109292003093910020939000BF91AF91C2
:1013D0009F918F917F916F915F914F913F912F914D
:1013E0000F900FBE0F901F901895982F1092FC0031
:1013F0008091FC008917E0F308959C0108C01092C9
:10140000FC008091FC008A30E0F32150304021152F
:101410003105A9F7089502C0000001970097E1F790
:101420000895D49ADC9A0895DC98D49808951BBA4C
:1014300018BA15BA81E082BB1ABA88E587BB8CE876
:1014400084BB82EF81BBF894C598BD9A87B3979807
:101450000E94FE0710BC8CE089B91BB886E880BDED
:1014600088E98AB917B886E186B910BE85E085BFDC
:1014700080EE8BBF14BE8AE083BF83E68CBF82EA16
:101480008FBD81E18EBD82ED90E097BD86BD1ABC17
:1014900018BC80E060E00E94D70589E085BD8EE63B
:1014A00083BD82E089BF8091B00081608093B000ED
:1014B00081E080936700789408951F93182FF89423
:1014C00097980E94FE071092BD001092BC001092E7
:1014D000CD001092CC001092B7001092B60010927E
:1014E000F2001092F10010920B011092E9001ABC68
:1014F00018BC1FBC0E941D0880EF91E00E94360EB0
:1015000085EB91E00E94360E812F81508230C0F42D
:101510008BE891E00E94360E89E791E00E94360E3A
:10152000113019F484E791E002C08EE691E00E9448
:10153000360E8DE391E00E94360E8EEF90E00CC0E7
:10154000133061F481EE90E00E94360E81EB90E062
:101550000E94360E8AE790E00E94360E84E590E005
:101560000E94360E16E31093A6000E9430042AE073
:1015700008C0000001973FEF8F3F9307D1F721503C
:1015800019F080E090E8F6CF1092A6000E94300497
:101590002AE005C000000197E9F7215021F380E01F
:1015A00090E0F9CF8091E800823308F47CC010927B
:1015B000E8008091E500882309F041C080910C018A
:1015C00090910D018350934038F48091FD009091EB
:1015D000FE0083509340F0F08091E7008F5F80938E
:1015E000E7008AE08093E5001092BD001092BC00F5
:1015F0001092CD001092CC001092B7001092B6005D
:101600001092F2001092F1008091A5008460809306
:10161000A50008958091A5008B7F8093A5008091FF
:10162000B200853628F01092E7001092B20007C091
:101630008091E700833018F083E00E945D0A80917A
:101640000C0190910D018639910598F48091BE00AE
:101650009091BF00892B69F48091AC009091AD000E
:10166000892B39F080910B01873918F081E00E94B5
:101670005D0A8091FD009091FE008639910598F4F5
:101680008091000190910101892B69F48091AA0059
:101690009091AB00892B39F08091E900873918F0DF
:1016A00082E00E945D0A8091BA00882309F49FC1FC
:1016B0008091E500882309F095C18091E700882397
:1016C00031F08091B2008F5F8093B20002C010921F
:1016D000B2004091A50041FF38C020910201309135
:1016E00003018091A8009091A9002817390780F084
:1016F0001092AD001092AC001092B7001092B6009C
:101700001092BD001092BC004D7F4093A5001DC0FB
:1017100020910201309103018091C0009091C1009D
:101720002817390790F08091AC009091AD00969504
:1017300087959093AD008093AC00469730F486E196
:1017400090E09093AD008093AC004091A50040FFE5
:1017500038C02091F4003091F5008091CA0090913A
:10176000CB002817390780F01092AB001092AA0026
:101770001092F2001092F1001092CD001092CC0065
:101780004E7F4093A5001DC02091F4003091F500DC
:101790008091F6009091F7002817390790F080911A
:1017A000AA009091AB00969587959093AB0080939B
:1017B000AA00469730F486E190E09093AB008093C6
:1017C000AA0040918B0080918D00481739F49091C8
:1017D0008C0080918E00981709F455C02091AC00C0
:1017E0003091AD002115310531F48091AA0090911E
:1017F000AB00892B21F13093AF002093AE00809194
:10180000AA009091AB009093C3008093C200109205
:10181000AD001092AC001092AB001092AA00109292
:10182000CD001092CC001092BD001092BC0010921E
:10183000B7001092B6001092F2001092F1008FB52E
:10184000882309F5842F60918C000E94D705809130
:10185000AE009091AF009093AD008093AC002091CA
:10186000C2003091C3003093AB002093AA0096953C
:1018700087959093B7008093B6003695279530935F
:10188000F2002093F1004091AC005091AD008091A6
:10189000BE009091BF009A01281B390BC90120910D
:1018A000B6003091B700820F931F9093B7008093DA
:1018B000B600855A914034F084EA91E09093B700E5
:1018C0008093B6008091B6009091B7008C559E4FE2
:1018D00034F48CE59EEF9093B7008093B60080912E
:1018E000BE009091BF00892B31F4452B21F410925A
:1018F000B7001092B6008091B6009091B70062E0F8
:1019000070E00E9494107093BD006093BC00633D32
:10191000710534F082ED90E09093BD008093BC009F
:101920008091BC009091BD0097FF04C01092BD0053
:101930001092BC004091AA005091AB008091000130
:10194000909101019A01281B390BC9012091F100E6
:101950003091F200820F931F9093F2008093F10078
:10196000855A914034F084EA91E09093F20080939C
:10197000F1008091F1009091F2008C559E4F34F46B
:101980008CE59EEF9093F2008093F100809100012E
:1019900090910101892B31F4452B21F41092F20032
:1019A0001092F1008091F1009091F20062E070E0FD
:1019B0000E9494107093CD006093CC00633D71053C
:1019C00034F082ED90E09093CD008093CC00809134
:1019D000CC009091CD0097FF08C01092CD001092DE
:1019E000CC0003C081508093E5001092BA00909122
:1019F000A50080910601891739F090930601E091C6
:101A00006C00F0916D00099508950E94B9040E9440
:101A1000A0060E9484040E94D20A0895FF920F93A8
:101A20001F93CF93DF93182F062FF22E8091A500DE
:101A300083608093A50060E070E0CB01BA0120EBE9
:101A400032E040E050E00E94611024E630E040E0E7
:101A500050E00E94A710E901C9018456904090937C
:101A6000F7008093F6009093C1008093C0003093FC
:101A7000CB002093CA003093A9002093A8002832FD
:101A80003105B0F484E190E09093CB008093CA00DC
:101A90009093A9008093A8008AE090E09093F700CB
:101AA0008093F6009093C1008093C000C8E2D0E01C
:101AB000193C18F018EC88EC01C0812F8093AC0021
:101AC0001092AD001093AA001092AB00802F0E94DC
:101AD000670510920301109202011092F500109216
:101AE000F400D093D300C093D200D093B400C0933D
:101AF000B3008091A50080930601E0916C00F09105
:101B00006D000995FF2019F406C00E94050D809113
:101B1000A5008370D1F7DF91CF911F910F91FF90B6
:101B200008951F93CF93DF93382FEA01122F8091EE
:101B3000A50083608093A5001092F7001092F60034
:101B40001092C1001092C000373180F086EF9FEFF5
:101B5000831B9109880F991F840F951F9093F7009D
:101B60008093F6009093C1008093C000CE0102974D
:101B70009093CB008093CA009093A9008093A80013
:101B8000C832D105B8F484E190E09093CB00809303
:101B9000CA009093A9008093A8008AE090E09093F7
:101BA000F7008093F6009093C1008093C000C8E2D4
:101BB000D0E004C021E0C039D20798F4393288F06F
:101BC000CE0196958795969587959E01281B390B92
:101BD0003093F7002093F6003093C1002093C000AB
:101BE00038E210920301109202011092F500109257
:101BF000F400393C18F038EC88EC01C0832F809356
:101C0000AC001092AD003093AA001092AB00862F6A
:101C10000E946705D093D300C093D200D093B40044
:101C2000C093B3008091A50080930601E0916C0001
:101C3000F0916D000995112319F406C00E94050D5D
:101C40008091A5008370D1F7DF91CF911F91089506
:101C50005D9BFECF8CB90895FC0104C05D9BFECF57
:101C600031968CB980818823C9F7089503C05D9BA4
:101C7000FECF2CB9FC01019624912223C1F70895CF
:101C8000FC01E40FF11D05C05D9BFECF31968CB9C0
:101C900061508081882311F06623B1F708951F9267
:101CA0000F920FB60F9211242F938F939F93EF9360
:101CB000FF932091A00080919F00922F981B90325B
:101CC000A8F480919E00E82FF0E09CB1E15FFE4F08
:101CD00090838F5F80939E002F5F2093A0008132BE
:101CE00010F010929E0010920E0106C08CB18093ED
:101CF000A20081E080930E01FF91EF919F918F915F
:101D00002F910F900FBE0F901F90189510920E01FB
:101D100090919F008091A000891711F4E0E013C01A
:101D20009F5F90939F0080919D00813210F01092F0
:101D30009D0080919D00E82FF0E0E15FFE4FE08183
:101D40008F5F80939D008E2F089510920E01DC010D
:101D500020E014C09F5F90939F0080919D00E82F2A
:101D6000F0E0E15FFE4F90819C938F5F80939D0038
:101D7000813210F010929D002F5F119690919F007C
:101D80008091A000891711F0261720F3822F089563
:101D90008091A00090919F00891B089557988CB165
:101DA0008093A10010929D0010929E0010929F00BF
:101DB0001092A00010920E01579A08950F931F934E
:101DC000DF93CF93CDB7DEB761970FB6F894DEBF40
:101DD0000FBECDBF462F8E010F5F1F4FB80150E0E1
:101DE0000E94C910C8010E942C0E61960FB6F8948B
:101DF000DEBF0FBECDBFCF91DF911F910F91089530
:101E0000FF920F931F93DF93CF93CDB7DEB7619708
:101E10000FB6F894DEBF0FBECDBF262FF42E8E0175
:101E20000F5F1F4FB801422F50E00E94C910F80108
:101E300001900020E9F73197E01BF10B4F2D4E1B6D
:101E4000141664F480E341505D9BFECF8CB94423AB
:101E5000D1F7CE0101960E942C0E05C04195C80114
:101E60006F2D0E94400E61960FB6F894DEBF0FBE34
:101E7000CDBFCF91DF911F910F91FF9008950CD0AE
:101E8000E6C0DED040F0D5D030F021F45F3F19F04D
:101E9000C7C0511110C1CAC0EBD098F39923C9F340
:101EA0005523B1F3951B550BBB27AA276217730760
:101EB000840738F09F5F5F4F220F331F441FAA1F14
:101EC000A9F333D00E2E3AF0E0E830D091505040D4
:101ED000E695001CCAF729D0FE2F27D0660F771F82
:101EE000881FBB1F261737074807AB07B0E809F064
:101EF000BB0B802DBF01FF2793585F4F2AF09E3FF9
:101F0000510568F08DC0D7C05F3FECF3983EDCF31D
:101F1000869577956795B795F7959F5FC9F7880F71
:101F2000911D9695879597F90895E1E0660F771FC3
:101F3000881FBB1F621773078407BA0720F0621B54
:101F4000730B840BBA0BEE1F88F7E095089598D0B9
:101F500088F09F5790F0B92F9927B751A0F0D1F092
:101F6000660F771F881F991F1AF0BA95C9F712C01C
:101F7000B13081F09FD0B1E008959CC0672F782FD9
:101F80008827B85F39F0B93FCCF386957795679588
:101F9000B395D9F73EF490958095709561957F4FF4
:101FA0008F4F9F4F0895E89409C097FB3EF490959A
:101FB0008095709561957F4F8F4F9F4F9923A9F022
:101FC000F92F96E9BB279395F695879577956795B1
:101FD000B795F111F8CFFAF4BB0F11F460FF1BC0F5
:101FE0006F5F7F4F8F4F9F4F16C0882311F096E988
:101FF00011C0772321F09EE8872F762F05C0662336
:1020000071F096E8862F70E060E02AF09A95660FEE
:10201000771F881FDAF7880F9695879597F90895A7
:1020200097F99F6780E870E060E008959FEF80EC8B
:10203000089500240A94161617061806090608952E
:1020400000240A9412161306140605060895092E94
:102050000394000C11F4882352F0BB0F40F4BF2B03
:1020600011F460FF04C06F5F7F4F8F4F9F4F089543
:1020700057FD9058440F551F59F05F3F71F0479539
:10208000880F97FB991F61F09F3F79F0879508951E
:10209000121613061406551FF2CF4695F1DF08C03D
:1020A000161617061806991FF1CF8695710561055A
:1020B00008940895E894BB2766277727CB0197F902
:1020C0000895629FD001739FF001829FE00DF11D82
:1020D000649FE00DF11D929FF00D839FF00D749FA2
:1020E000F00D659FF00D9927729FB00DE11DF91F4E
:1020F000639FB00DE11DF91FBD01CF0111240895AB
:10210000AA1BBB1B51E107C0AA1FBB1FA617B7071D
:1021100010F0A61BB70B881F991F5A95A9F7809539
:102120009095BC01CD01089597FB092E07260AD092
:1021300077FD04D0E5DF06D000201AF47095619594
:102140007F4F0895F6F7909581959F4F0895A1E2EE
:102150001A2EAA1BBB1BFD010DC0AA1FBB1FEE1F21
:10216000FF1FA217B307E407F50720F0A21BB30B6C
:10217000E40BF50B661F771F881F991F1A9469F7E8
:1021800060957095809590959B01AC01BD01CF0144
:102190000895FB019F01E8944230C4F04532B4F445
:1021A0004A3029F497FB1EF4909581959F4F642F38
:1021B00077270E948010805D8A330CF0895D8193BF
:1021C000CB010097A1F716F45DE251931082C9018B
:1021D0000C94EA10DC01FC01672F71917723E1F781
:1021E000329704C07C916D9370836291AE17BF07E4
:0821F000C8F30895F894FFCF35
:1021F800646400000001020194069A0652057E04F8
:00000001FF
