:100000000C9409010C9470040C9490040C94CD058C
:100010000C946B050C9426010C9426010C9426017B
:100020000C9426010C9426010C948D070C94260147
:100030000C9426010C94AD0D0C9426010C94260111
:100040000C9426010C9426010C9426010C94260194
:100050000C94260154686520526F626F74206E659F
:1000600065647320746F20626520726573657474B3
:100070006564206E6F772E0A0A00596F75206E65D1
:10008000656420746F20636865636B204D6F746FC7
:100090007220617373656D626C7920286F722079AC
:1000A0006F757220736F667477617265292E0A0A04
:1000B000000A0A28732E207461736B5F6D6F746F72
:1000C00072436F6E74726F6C28292066756E63744C
:1000D000696F6E20696E205250364C696221290A80
:1000E000000A0A232323204D4F544F52204F5645D8
:1000F0005243555252454E54202323230A00596F30
:1001000075206E65656420746F20636865636B207D
:10011000456E636F6465722F4D6F746F72206173EB
:1001200073656D626C7920286F7220796F7572200B
:10013000736F667477617265292E0A0A00210A0AB4
:1001400028732E207461736B5F6D6F746F72436FD1
:100150006E74726F6C28292066756E6374696F6E99
:1001600020696E205250364C696221290A0052499A
:10017000474854004C4546540041666665637465C3
:1001800064206368616E6E656C3A000A2323232045
:10019000454E434F44455220284F52204D4F544F17
:1001A0005229204D414C46554E4354494F4E212033
:1001B0002323230A00232323232320414C4C204FB5
:1001C0005045524154494F4E532053544F5050457F
:1001D0004420544F2050524556454E5420414E59CC
:1001E0002044414D414745212023232323230A0056
:1001F0000A0A232323232320454D455247454E43D6
:10020000592053485554444F574E2023232323232A
:100210000A0011241FBECFE5D8E0DEBFCDBF10E03D
:10022000A0E6B0E0E4EBF0E202C005900D92A0374A
:10023000B107D9F711E0A0E7B0E001C01D92A932E3
:10024000B107E1F70E942E030C9458100C940000A3
:10025000089580917B00843009F46FC0853048F4A4
:10026000823061F1833008F050C0813009F0B3C0B2
:100270000AC0863009F487C0863008F467C087302A
:1002800009F0A9C0A2C088E280937600809178002E
:100290008C7F85608093780020918300243018F053
:1002A0008CED90E002C080EA90E090937A00809319
:1002B000790082E080937B002E5F62C020917800FD
:1002C00022FD89C08EE18093760080918300843086
:1002D00060F084E690E090937A0080937900236048
:1002E00020937800109283000AC02C7F2260209314
:1002F000780086E490E090937A0080937900809172
:1003000078008860809378005CC088E280937600F3
:10031000809178008C7F85608093780020918300A5
:10032000243018F08EEB90E002C086E990E09093C4
:100330007A008093790084E020C09091780092FD4B
:100340004AC08EE1809376009B6026C088E280934D
:100350007600809178008C7F856080937800209172
:100360008300243018F08EEB90E002C086E990E024
:1003700090937A008093790086E080937B002F5FD2
:100380002093830008959091780092FD24C08EE11F
:10039000809376009C7F9A60909378008091830090
:1003A000843048F08EE690E090937A008093790054
:1003B0001092830006C080E590E090937A008093CD
:1003C000790087E080937B000895809178008C709D
:1003D00011F410927B0008958091A0009091FD008F
:1003E000882361F0992311F081E005C080917B00A2
:1003F000823069F083E080937B000895992339F07F
:1004000080917B00823019F085E080937B00089515
:1004100080918100823009F47AC0833030F48823DF
:1004200051F0813009F0B6C04DC08330C9F085303D
:1004300009F0B0C09DC09091E800992331F08091FF
:10044000DF00882311F083E03AC08091DF00882329
:1004500011F082E034C0992309F49CC081E02FC0E0
:1004600090916600937080917E008C7F892B8093A1
:100470007E008EE180937C0080937D008091DF0080
:10048000882309F087C08091E800882309F082C0A2
:1004900080918200843038F0109282001092D50052
:1004A0001092D40006C080E991E09093D50080932B
:1004B000D4008091CD0088608093CD0085E080934A
:1004C0008100089580917E008C7F80937E008EE174
:1004D00080937C0088E280937D008091E8008823EF
:1004E00031F08091DF00882381F083E00CC084EF3D
:1004F00091E09093D5008093D4008091CD008860E6
:100500008093CD0085E08093810083E029C08091B5
:100510007E008C7F80937E0088E280937C008EE159
:1005200080937D008091E800882339F08091DF007E
:10053000882319F083E0809381008091DF00882375
:1005400071F484EF91E09093D5008093D400809172
:10055000CD0088608093CD0085E08093810082E0AB
:1005600080936600809182008F5F8093820008955F
:100570008091D4009091D500895E934058F080918D
:10058000CD00877F8093CD001092D5001092D400CB
:100590001092810008951F93CF93DF93EC014B815C
:1005A0005C816A814115510521F163FF06C06370CA
:1005B000888120E00E946C0C19C062FF17C0162FC2
:1005C0001370BA0180E090E00E94310F2FE832EC06
:1005D00045E75EE30E949D0E0E94050F9B01AC0162
:1005E0008881612FA90120E00E94EF0C1C821B82F0
:1005F00013C0862F8C7049F4862F83700E94C50427
:10060000888169810E94B60407C00E940105882381
:1006100019F08A81837F8A83DF91CF911F9108959A
:100620000E9408020E94290180917B00882319F012
:1006300086E790E010C080918100882319F08CE754
:1006400090E009C080916500882319F080E690E071
:1006500002C080E790E00E94CB0208950E947509D5
:100660008FE30E94BD0384EC99E00E945B0984E261
:100670000E94BD038CEE91E00E94DD038BE493E0C9
:100680000E94F9050E9472070E9468070E941003E9
:100690000E94630CFBCF2091DF00222341F0809168
:1006A000E800882321F084E280939F0002C010922A
:1006B0009F00922F91709295907F80919F008F7EE6
:1006C000892B80939F0030E0222309F431E0330F1F
:1006D000330F330F80919F00857F2091E800922F88
:1006E0009170990F832B892B80939F0090E0222398
:1006F00009F491E080919F008E7F892B80939F0069
:100700000E948E0308958091B400843010F01092FE
:10071000B400089584E08093B400089587B38C7783
:1007200087BB88B38C7788BB80919F0083FF02C012
:10073000BF9AC79A84FF02C0B99AC19A85FF02C0C6
:10074000B89AC09A84B38F7884BB85B38F7885BB01
:1007500094B320919F00822F82958077982B94BB31
:1007600095B3892B85BB8091B400882319F4822F1F
:10077000211181E08093B400089580939F000E942E
:100780008E030895C098B898000096B380919F009A
:1007900085FF02C0B89AC09A892F81700895AE98DB
:1007A000A698000093B380919F0082FF02C0A69A92
:1007B000AE9A892F80740895089590936F00809366
:1007C0006E0008951F938091EC008333C8F00E945F
:1007D000C203182F0E94CF03982F8091A000811789
:1007E00021F48091FD00891749F01093A0009093A7
:1007F000FD00E0916E00F0916F0009951092EC0001
:100800001F910895369B03C020E030E009C080644A
:1008100087B986ED86B93699FECF349A24B135B1C1
:10082000C9010895806487B986ED86B9089536991F
:1008300056C020919500233039F1243028F421301E
:1008400099F02230C8F408C0253089F1253020F114
:10085000263009F041C033C084B195B190930101B5
:100860008093000186E41FC084B195B19093060186
:100870008093050185E417C084B195B19093F7008A
:100880008093F60083E40FC084B195B19093C000CB
:100890008093BF0082E407C084B195B19093E600D5
:1008A0008093E50080E487B986ED86B915C084B1F0
:1008B00095B19093F4008093F30081E4F4CF84B178
:1008C00095B19093BE008093BD0087E487B986ED13
:1008D00086B91092950008952F5F20939500089592
:1008E0001F920F920FB60F9211248F939F938091B6
:1008F000FB009091FC0001969093FC008093FB001C
:100900008091F1009091F20001969093F200809313
:10091000F1009F918F910F900FBE0F901F9018952F
:100920001F920F920FB60F9211248F939F93809175
:10093000ED009091EE0001969093EE008093ED0013
:100940008091C7009091C80001969093C800809351
:10095000C7009F918F910F900FBE0F901F90189519
:10096000089590936D0080936C000895893C08F081
:1009700088EC8093A5001092A600693C08F068EC12
:100980006093A3001092A4000895282F80938800FC
:10099000109284008150823018F481E080938400AA
:1009A000213021F080E090E0233011F481E090E0EC
:1009B0008093850008959C011092840097FF03C0E6
:1009C00081E0809384001092850077FF03C081E06E
:1009D000809385001216130614F4822F03C0822F11
:1009E00081956195893C08F088EC8093A500109270
:1009F000A600693C08F068EC6093A3001092A40084
:100A0000089590E080919E00837009F491E0892F11
:100A100008951092A6001092A5001092A4001092C2
:100A2000A3001092B0001092AF001092EB00109251
:100A3000EA0080919E008C7F80939E008093FF004F
:100A4000E0916C00F0916D0009950895633D08F008
:100A500062ED6093C5001092C600833D08F082ED00
:100A60008093B5001092B60008958093860060933D
:100A700087008093840060938500882311F0AA9AF0
:100A800001C0AA98662311F0AB9A0895AB98089517
:100A9000982F03C089B7806889BF8091AA008823F6
:100AA000C9F7892F90E08F73907026E0880F991F07
:100AB0002A95E1F7262F30E02F733070822B932B8D
:100AC00090639093CA008093C9008091A9008064CC
:100AD0008093A90008951F920F920FB60F921124D0
:100AE0002F938F939F93809167008230B0F5209170
:100AF00094002223C1F02C3338F48091E3009091CC
:100B0000E40096FF07C008C08091E3009091E400E4
:100B100096FF02C0979803C082B3805882BB2150D1
:100B20002093940032C08091AA008823A1F0979866
:100B30008091E3009091E400880F991F9093E40066
:100B40008093E30088E7809394008091AA0081500D
:100B50008093AA001AC0979818C08091AE0088238D
:100B600091F08091A90080FD05C088B390E48927A9
:100B700088BB03C085B3805885BB8091AE0081508F
:100B80008093AE0002C0C69AAF9A9F918F912F9129
:100B90000F900FBE0F901F9018951F920F920FB6D7
:100BA0000F9211248F9380916700833011F086306B
:100BB00069F48091A90084FD09C085FF07C0B2993E
:100BC00005C08091FE008F5F8093FE0086B3809108
:100BD000A9008D7F8093A9008F910F900FBE0F9079
:100BE0001F90189508959093690080936800089568
:100BF000089590936B0080936A0008958091C100DE
:100C00009091C200029708F43BC19091A90094FD15
:100C100016C180916700823009F467C0833030F4D8
:100C2000882371F0813009F010C111C0853009F4BA
:100C3000ACC0863009F4C1C0833009F006C16DC074
:100C400089B78F7789BF9798C69AAF9AFEC080916F
:100C5000AA00882341F596FF14C08091C9009091A5
:100C6000CA009093E4008093E3008EE08093AA0092
:100C70008091A9008F7B8093A90089B7806889BF84
:100C800006C089B78F7789BF9798C69AAF9A809127
:100C900093008F5F809393008150843138F082E01D
:100CA0008093670003C089B7806889BF8091A900DD
:100CB00083FFCBC0E0916800F09169008091020150
:100CC0009091030109958091020190910301909305
:100CD000B2008093B1001092030110920201809142
:100CE000A900877F8093A900B0C089B78F7789BF9B
:100CF0009798C69AAF9A1092AE001092FE0010928A
:100D00009200109291008091A9008E7F8062809362
:100D1000A90083E08093930075C08091AE00882382
:100D200081F4809193008F5F809393008150833092
:100D300040F089B7806889BF88E28093AE00109246
:100D400093008091DF00882321F08091FE008230A3
:100D500020F48091FE00863038F01092FE0081E091
:100D60008093DF0085E04EC08091910090919200C9
:100D70000196909392008093910001970E9708F44A
:100D800064C01092DF0085E04FC089B78F7789BFBC
:100D90009798C69AAF9A1092AE001092FE001092E9
:100DA0009200109291008091A90081628093A90025
:100DB00083E08093930086E025C08091AE00882375
:100DC00081F4809193008F5F8093930081508330F2
:100DD00040F089B7806889BF88E28093AE001092A6
:100DE00093008091E800882321F08091FE008230FA
:100DF00020F48091FE00863040F01092FE0081E0E9
:100E00008093E8008093670020C0809191009091CA
:100E100092000196909392008093910001970E9713
:100E2000A0F01092E80081E08093670089B78F7787
:100E300089BF9798C69AAF9A1092AE0006C01092DA
:100E4000920010929100109293002091DF00809107
:100E50009000821731F490918F008091E8009817EC
:100E600059F0209390008091E80080938F00E091EA
:100E70006A00F0916B0009951092C2001092C100B7
:100E800008951092670089B78F7789BF9798C69A9F
:100E9000AF9A1092E8001092DF00089589B78F771B
:100EA00089BF9798C69AAF9A1092E8001092DF0017
:100EB00081E08093670008958E989698BB98C398B8
:100EC000C698AF9808958E9A969ABB98C39808953D
:100ED0008E989698BB9AC39A08958E9A969ABB9AC2
:100EE000C39A0895C49A8091B400843018F483E0C2
:100EF0008093B4000895C4988091B400843060F465
:100F0000882331F420E030E080919F00882311F0A5
:100F100021E030E02093B40008951F920F920FB6A5
:100F20000F9211242F933F934F935F936F937F936F
:100F30008F939F93AF93BF9380919C0090919D005E
:100F4000019690939D0080939C008091F5008F5FA7
:100F50008093F5008091F8008F5F8093F8008150B6
:100F6000893008F447C18091CD0080FF09C080918D
:100F7000CE009091CF0001969093CF008093CE0049
:100F80008091CD0081FF09C08091D0009091D10067
:100F900001969093D1008093D0008091CD0082FF84
:100FA00009C08091D2009091D30001969093D30014
:100FB0008093D2008091CD0083FF09C08091D4003E
:100FC0009091D50001969093D5008093D4008091A4
:100FD000CD0084FF09C08091D6009091D700019682
:100FE0009093D7008093D6008091CD0085FF09C0F3
:100FF0008091D8009091D90001969093D900809368
:10100000D8008091CD0086FF09C08091DA009091D0
:10101000DB0001969093DB008093DA008091CD0095
:1010200087FF09C08091DC009091DD0001969093CC
:10103000DD008093DC008091E9008F5F8093E90000
:101040008150893CE8F08091C7009091C80090934E
:10105000FA008093F9008091F1009091F200909352
:10106000B8008093B7001092C8001092C700109289
:10107000F2001092F10081E08093B3001092E90039
:101080004091B400433008F052C0423081F5809165
:101090009F00882301F580918D0090918E009C0126
:1010A0002F5F3F4F30938E0020938D0068EC70E0EF
:1010B0000E94DE0F892BD9F5215A3F4028F0B998BC
:1010C000C1981092B40029C087B3842787BB88B326
:1010D000842788BB2CC084FD02C0B998C1981092A7
:1010E0008E0010928D0081E08093B40020C080912A
:1010F0008D0090918E002EE2813E920798F0413053
:1011000049F41092B40080919F0084FD06C0B99804
:10111000C19803C082E08093B40010928E001092B8
:101120008D0005C0019690938E0080938D00809174
:10113000C1009091C200039748F48091C100909142
:10114000C20001969093C2008093C1008091E1009B
:10115000873318F48F5F8093E1008091EC00843333
:1011600028F48091EC008F5F8093EC008091E70081
:101170008F5F8093E70081508330D0F18091E2004F
:10118000482F50E02091C5003091C6004217530708
:1011900059F04217530714F48F5F01C081508093B8
:1011A000E2008091E2008ABD80910401482F50E066
:1011B0002091B5003091B6004217530759F04217FD
:1011C000530714F48F5F01C0815080930401809114
:1011D000040188BD80910401882321F48091E200FC
:1011E000882319F082EA8FBD01C01FBC1092E7006E
:1011F0001092F8008091A90083FD46C020918900DB
:1012000030918A0040918B004F5F40938B004631B4
:1012100090F036FD09C035FF07C0309303012093DD
:10122000020188608093A9008091A9008F7E80933D
:10123000A90020E030E090918C0086B3892782FFDE
:101240001FC0909590938C00473040F48091A90086
:101250008F7E8093A90020E030E005C02115310584
:1012600011F04F3068F08091A90080618093A9004F
:1012700036FD02C0220F331F92FF216010928B00B7
:1012800030938A0020938900BF91AF919F918F91F5
:101290007F916F915F914F913F912F910F900FBE72
:1012A0000F901F901895982F1092F5008091F500DF
:1012B0008917E0F308959C0108C01092F500809111
:1012C000F5008A30E0F32150304021153105A9F7AF
:1012D000089502C0000001970097E1F70895D49A9D
:1012E000DC9A0895DC98D49808951BBA18BA15BAF8
:1012F00081E082BB1ABA88E587BB8CE884BB82EFA9
:1013000081BBF894C598BD9A87B397980E945C07F3
:1013100010BC8CE089B91BB886E880BD88E98AB921
:1013200017B886E186B910BE85E085BF80EE8BBF19
:1013300014BE8AE083BF83E68CBF82EA8FBD81E161
:101340008EBD82ED90E097BD86BD1ABC18BC80E0D2
:1013500060E00E94350589E085BD8EE683BD82E0B0
:1013600089BF8091A90081608093A90081E080936A
:101370006700789408951F93182FF89497980E9407
:101380005C071092B6001092B5001092C600109241
:10139000C5001092B0001092AF001092EB001092B6
:1013A000EA00109204011092E2001ABC18BC1FBCA3
:1013B0000E947B0780EF91E00E94940D85EB91E005
:1013C0000E94940D812F81508230C0F48BE891E00F
:1013D0000E94940D89E791E00E94940D113019F458
:1013E00084E791E002C08EE691E00E94940D8DE3C7
:1013F00091E00E94940D8EEF90E00CC0133061F4E8
:1014000081EE90E00E94940D81EB90E00E94940D9B
:101410008AE790E00E94940D84E590E00E94940D8C
:1014200016E310939F000E948E032AE008C000007C
:1014300001973FEF8F3F9307D1F7215019F080E0DC
:1014400090E8F6CF10929F000E948E032AE005C01C
:1014500000000197E9F7215021F380E090E0F9CFF7
:101460008091E100823308F47CC01092E100809109
:10147000DE00882309F041C08091050190910601AA
:101480008350934038F48091F6009091F700835098
:101490009340F0F08091E0008F5F8093E0008AE05D
:1014A0008093DE001092B6001092B5001092C60034
:1014B0001092C5001092B0001092AF001092EB0095
:1014C0001092EA0080919E00846080939E000895AF
:1014D00080919E008B7F80939E008091AB0085362B
:1014E00028F01092E0001092AB0007C08091E0005D
:1014F000833018F083E00E94BB0980910501909130
:1015000006018639910598F48091B7009091B80052
:10151000892B69F48091A5009091A600892B39F060
:1015200080910401873918F081E00E94BB09809105
:10153000F6009091F7008639910598F48091F900B2
:101540009091FA00892B69F48091A3009091A400F6
:10155000892B39F08091E200873918F082E00E94EF
:10156000BB098091B300882309F49FC18091DE00FC
:10157000882309F095C18091E000882331F08091A3
:10158000AB008F5F8093AB0002C01092AB00409124
:101590009E0041FF38C02091FB003091FC008091FB
:1015A000A1009091A2002817390780F01092A600A0
:1015B0001092A5001092B0001092AF001092B600E9
:1015C0001092B5004D7F40939E001DC02091FB00FE
:1015D0003091FC008091B9009091BA00281739072A
:1015E00090F08091A5009091A60096958795909394
:1015F000A6008093A500469730F486E190E0909392
:10160000A6008093A50040919E0040FF38C0209125
:10161000ED003091EE008091C3009091C400281736
:10162000390780F01092A4001092A3001092EB00F2
:101630001092EA001092C6001092C5004E7F4093AF
:101640009E001DC02091ED003091EE008091EF00D2
:101650009091F0002817390790F08091A3009091A5
:10166000A400969587959093A4008093A300469735
:1016700030F486E190E09093A4008093A300409121
:10168000840080918600481739F4909185008091FC
:101690008700981709F455C02091A5003091A60045
:1016A0002115310531F48091A3009091A400892B7C
:1016B00021F13093A8002093A7008091A30090917E
:1016C000A4009093BC008093BB001092A6001092DF
:1016D000A5001092A4001092A3001092C6001092D0
:1016E000C5001092B6001092B5001092B000109292
:1016F000AF001092EB001092EA008FB5882309F535
:10170000842F609185000E9435058091A7009091FB
:10171000A8009093A6008093A5002091BB00309173
:10172000BC003093A4002093A300969587959093D6
:10173000B0008093AF00369527953093EB0020934F
:10174000EA004091A5005091A6008091B7009091C9
:10175000B8009A01281B390BC9012091AF003091C4
:10176000B000820F931F9093B0008093AF00855A12
:10177000914034F084EA91E09093B0008093AF0000
:101780008091AF009091B0008C559E4F34F48CE561
:101790009EEF9093B0008093AF008091B70090913E
:1017A000B800892B31F4452B21F41092B00010922F
:1017B000AF008091AF009091B00062E070E00E94B5
:1017C000F20F7093B6006093B500633D710534F07D
:1017D00082ED90E09093B6008093B5008091B500C3
:1017E0009091B60097FF04C01092B6001092B50019
:1017F0004091A3005091A4008091F9009091FA00CB
:101800009A01281B390BC9012091EA003091EB00A5
:10181000820F931F9093EB008093EA00855A9140CA
:1018200034F084EA91E09093EB008093EA00809199
:10183000EA009091EB008C559E4F34F48CE59EEFBE
:101840009093EB008093EA008091F9009091FA0068
:10185000892B31F4452B21F41092EB001092EA0011
:101860008091EA009091EB0062E070E00E94F20F3C
:101870007093C6006093C500633D710534F082ED3E
:1018800090E09093C6008093C5008091C500909130
:10189000C60097FF08C01092C6001092C50003C092
:1018A00081508093DE001092B30090919E00809151
:1018B000FF00891739F09093FF00E0916C00F091E0
:1018C0006D00099508950E9417040E94FE050E946C
:1018D000E2030E94300A0895FF920F931F93CF9363
:1018E000DF93182F062FF22E80919E008360809345
:1018F0009E0060E070E0CB01BA0120EB32E040E0F6
:1019000050E00E94BF0F24E630E040E050E00E942B
:101910000510E901C901845690409093F00080932E
:10192000EF009093BA008093B9003093C4002093E5
:10193000C3003093A2002093A10028323105B0F4F7
:1019400084E190E09093C4008093C3009093A20040
:101950008093A1008AE090E09093F0008093EF00E4
:101960009093BA008093B900C8E2D0E0193C18F017
:1019700018EC88EC01C0812F8093A5001092A6007E
:101980001093A3001092A400802F0E94C50410920F
:10199000FC001092FB001092EE001092ED00D0932C
:1019A000CC00C093CB00D093AD00C093AC0080912D
:1019B0009E008093FF00E0916C00F0916D0009950E
:1019C000FF2019F406C00E94630C80919E00837072
:1019D000D1F7DF91CF911F910F91FF9008951F9341
:1019E000CF93DF93382FEA01122F80919E008360FE
:1019F00080939E001092F0001092EF001092BA00B7
:101A00001092B900373180F086EF9FEF831B910968
:101A1000880F991F840F951F9093F0008093EF001B
:101A20009093BA008093B900CE0102979093C400BE
:101A30008093C3009093A2008093A100C832D10587
:101A4000B8F484E190E09093C4008093C300909335
:101A5000A2008093A1008AE090E09093F000809330
:101A6000EF009093BA008093B900C8E2D0E004C0C0
:101A700021E0C039D20798F4393288F0CE0196952A
:101A80008795969587959E01281B390B3093F0001A
:101A90002093EF003093BA002093B90038E21092FF
:101AA000FC001092FB001092EE001092ED00393C09
:101AB00018F038EC88EC01C0832F8093A5001092B9
:101AC000A6003093A3001092A400862F0E94C504A4
:101AD000D093CC00C093CB00D093AD00C093AC00AA
:101AE00080919E008093FF00E0916C00F0916D006A
:101AF0000995112319F406C00E94630C80919E0081
:101B00008370D1F7DF91CF911F9108955D9BFECF38
:101B10008CB90895FC0104C05D9BFECF31968CB951
:101B200080818823C9F7089503C05D9BFECF2CB93F
:101B3000FC01019624912223C1F70895FC01E40FD2
:101B4000F11D05C05D9BFECF31968CB9615080813F
:101B5000882311F06623B1F708951F920F920FB6F4
:101B60000F9211242F938F939F93EF93FF932091C4
:101B7000990080919800922F981B9032A8F4809140
:101B80009700E82FF0E09CB1E85FFE4F90838F5FF5
:101B9000809397002F5F20939900813210F010926C
:101BA00097001092070106C08CB180939B0081E0E2
:101BB00080930701FF91EF919F918F912F910F904B
:101BC0000FBE0F901F9018951092070190919800EA
:101BD00080919900891711F4E0E013C09F5F909302
:101BE000980080919600813210F0109296008091BA
:101BF0009600E82FF0E0E85FFE4FE0818F5F809372
:101C000096008E2F089510920701DC0120E014C089
:101C10009F5F9093980080919600E82FF0E0E85F36
:101C2000FE4F90819C938F5F80939600813210F0DD
:101C3000109296002F5F11969091980080919900D4
:101C4000891711F0261720F3822F089580919900AB
:101C500090919800891B089557988CB180939A00B1
:101C6000109296001092970010929800109299008E
:101C700010920701579A08950F931F93DF93CF9304
:101C8000CDB7DEB761970FB6F894DEBF0FBECDBFFC
:101C9000462F8E010F5F1F4FB80150E00E942710A2
:101CA000C8010E948A0D61960FB6F894DEBF0FBE80
:101CB000CDBFCF91DF911F910F910895FF920F93A8
:101CC0001F93DF93CF93CDB7DEB761970FB6F8942C
:101CD000DEBF0FBECDBF262FF42E8E010F5F1F4F2C
:101CE000B801422F50E00E942710F8010190002017
:101CF000E9F73197E01BF10B4F2D4E1B141664F4DE
:101D000080E341505D9BFECF8CB94423D1F7CE01D7
:101D100001960E948A0D05C04195C8016F2D0E9451
:101D20009E0D61960FB6F894DEBF0FBECDBFCF916A
:101D3000DF911F910F91FF9008950CD0E6C0DED087
:101D400040F0D5D030F021F45F3F19F0C7C05111F9
:101D500010C1CAC0EBD098F39923C9F35523B1F34E
:101D6000951B550BBB27AA2762177307840738F00A
:101D70009F5F5F4F220F331F441FAA1FA9F333D069
:101D80000E2E3AF0E0E830D091505040E695001C1D
:101D9000CAF729D0FE2F27D0660F771F881FBB1FD9
:101DA000261737074807AB07B0E809F0BB0B802DB3
:101DB000BF01FF2793585F4F2AF09E3F510568F0FF
:101DC0008DC0D7C05F3FECF3983EDCF386957795E6
:101DD0006795B795F7959F5FC9F7880F911D969501
:101DE000879597F90895E1E0660F771F881FBB1F5D
:101DF000621773078407BA0720F0621B730B840B0A
:101E0000BA0BEE1F88F7E095089598D088F09F5799
:101E100090F0B92F9927B751A0F0D1F0660F771F36
:101E2000881F991F1AF0BA95C9F712C0B13081F016
:101E30009FD0B1E008959CC0672F782F8827B85FA6
:101E400039F0B93FCCF3869577956795B395D9F777
:101E50003EF490958095709561957F4F8F4F9F4F81
:101E60000895E89409C097FB3EF49095809570958D
:101E700061957F4F8F4F9F4F9923A9F0F92F96E9D6
:101E8000BB279395F695879577956795B795F1114B
:101E9000F8CFFAF4BB0F11F460FF1BC06F5F7F4FE8
:101EA0008F4F9F4F16C0882311F096E911C07723FA
:101EB00021F09EE8872F762F05C0662371F096E803
:101EC000862F70E060E02AF09A95660F771F881FD2
:101ED000DAF7880F9695879597F9089597F99F6790
:101EE00080E870E060E008959FEF80EC08950024A2
:101EF0000A941616170618060906089500240A946F
:101F000012161306140605060895092E0394000CF4
:101F100011F4882352F0BB0F40F4BF2B11F460FF83
:101F200004C06F5F7F4F8F4F9F4F089557FD9058AC
:101F3000440F551F59F05F3F71F04795880F97FB8D
:101F4000991F61F09F3F79F0879508951216130647
:101F50001406551FF2CF4695F1DF08C01616170676
:101F60001806991FF1CF86957105610508940895AB
:101F7000E894BB2766277727CB0197F90895629FDE
:101F8000D001739FF001829FE00DF11D649FE00D71
:101F9000F11D929FF00D839FF00D749FF00D659FD2
:101FA000F00D9927729FB00DE11DF91F639FB00DD1
:101FB000E11DF91FBD01CF0111240895AA1BBB1B10
:101FC00051E107C0AA1FBB1FA617B70710F0A61B39
:101FD000B70B881F991F5A95A9F780959095BC015A
:101FE000CD01089597FB092E07260AD077FD04D06E
:101FF000E5DF06D000201AF4709561957F4F0895B3
:10200000F6F7909581959F4F0895A1E21A2EAA1B8D
:10201000BB1BFD010DC0AA1FBB1FEE1FFF1FA21798
:10202000B307E407F50720F0A21BB30BE40BF50B95
:10203000661F771F881F991F1A9469F7609570951E
:10204000809590959B01AC01BD01CF010895FB01E6
:102050009F01E8944230C4F04532B4F44A3029F488
:1020600097FB1EF4909581959F4F642F77270E94D0
:10207000DE0F805D8A330CF0895D8193CB01009780
:10208000A1F716F45DE251931082C9010C94481037
:10209000DC01FC01672F71917723E1F7329704C0CF
:1020A0007C916D9370836291AE17BF07C8F308955A
:0420B000F894FFCFD2
:1020B4002828000000010201F205F805B004DC0341
:00000001FF
