:100000000C9417010C944C040C946C040C948A0509
:100010000C942A050C9434010C9434010C94340192
:100020000C9434010C9434010C944B070C9434015F
:100030000C9434010C94AD0D0C9434010C943401E7
:100040000C9434010C9434010C9434010C9434015C
:100050000C9434018801A401CC01EA0102021B02C4
:100060003E0215041B04210427042D043304390423
:1000700054686520526F626F74206E6565647320EA
:10008000746F206265207265736574746564206E98
:100090006F772E0A0A00596F75206E6565642074AB
:1000A0006F20636865636B204D6F746F722061739E
:1000B00073656D626C7920286F7220796F7572207C
:1000C000736F667477617265292E0A0A000A0A281E
:1000D000732E207461736B5F6D6F746F72436F6EFC
:1000E00074726F6C28292066756E6374696F6E2058
:1000F000696E205250364C696221290A000A0A238F
:100100002323204D4F544F52204F564552435552B2
:1001100052454E54202323230A00596F75206E65E3
:10012000656420746F20636865636B20456E636F40
:100130006465722F4D6F746F7220617373656D62A9
:100140006C7920286F7220796F757220736F6674D6
:1001500077617265292E0A0A00210A0A28732E2067
:100160007461736B5F6D6F746F72436F6E74726FD7
:100170006C28292066756E6374696F6E20696E2025
:100180005250364C696221290A00524947485400AE
:100190004C45465400416666656374656420636837
:1001A000616E6E656C3A000A23232320454E434F4F
:1001B00044455220284F52204D4F544F5229204D34
:1001C000414C46554E4354494F4E21202323230A88
:1001D00000232323232320414C4C204F50455241E0
:1001E00054494F4E532053544F5050454420544F80
:1001F0002050524556454E5420414E592044414DC1
:10020000414745212023232323230A000A0A2323CD
:1002100023232320454D455247454E4359205348FB
:100220005554444F574E2023232323230A001124DF
:100230001FBECFE5D8E0DEBFCDBF10E0A0E6B0E046
:10024000E0E1F0E202C005900D92A037B107D9F7C6
:1002500021E0A0E7B0E001C01D92A932B207E1F7AA
:100260000E943C0E0C9406100C9400009091DF004C
:100270008091E800992331F0882321F024E2209333
:100280009F0002C010929F0020919F0090FB24F9D4
:1002900020939F0021E0911120E090919F0020FB8E
:1002A00093F980FB91F990939F0091E0811190E088
:1002B00080919F0090FB80F980939F000C947303C2
:1002C0009091A0008091FD00992351F0882311F0B6
:1002D00081E00DC080917B00823059F083E007C03F
:1002E000882339F080917B00823019F085E080937B
:1002F0007B000895089580917B0090E0FC01319788
:10030000E730F10508F0C0C0E65DFF4F0C94B10F77
:1003100088E280937600809178008C7F8160846091
:100320008093780020918300243018F08CED90E0C9
:1003300002C080EA90E090937A008093790082E096
:1003400080937B002E5F43C02091780022FD9CC0EB
:100350008EE18093760080918300843060F084E6A3
:1003600090E090937A008093790023602093780046
:10037000109283000BC0822F8C7F82608093780064
:1003800086E490E090937A008093790080917800E1
:100390008860809378006EC088E2809376008091B8
:1003A00078008C7F81608460809378002091830046
:1003B000243018F08EEB90E002C086E990E0909334
:1003C0007A008093790084E080937B002F5F2093F4
:1003D000830008958091780082FD56C09EE190933D
:1003E00076008360886080937800809183008430F9
:1003F000D8F18EE690E090937A0080937900109285
:100400008300089588E280937600809178008C7F45
:10041000816084608093780020918300243018F0FC
:100420008EEB90E002C086E990E090937A00809392
:10043000790086E0C9CF8091780082FD25C09EE1D9
:10044000909376008C7F82608860809378008091A2
:100450008300843048F08EE690E090937A00809399
:1004600079001092830006C080E590E090937A00B6
:100470008093790087E080937B00089580917800D5
:100480008C7011F410927B00089580917500823079
:1004900009F467C030F4882351F0813009F448C072
:1004A00008958330B9F0853009F48AC00895909199
:1004B000E8008091DF00992321F0882349F083E050
:1004C00004C0882309F49CC082E0809375000895DD
:1004D00081E0FBCF909160009370809172008C7FDF
:1004E000892B809372008EE180937000809371005D
:1004F0008091DF00811184C08091E800811180C06B
:1005000080918200843038F0109282001092D500E1
:100510001092D40006C080E991E09093D5008093BA
:10052000D4008091CD0088608093CD0085E0CDCF50
:10053000809172008C7F809372008EE180937000B6
:1005400088E2809371008091E800882309F44BC011
:100550008091DF00882319F083E08093750083E0A9
:1005600027C0809172008C7F8093720088E2809314
:1005700070008EE1809371009091E8008091DF001F
:10058000992329F0882329F093E090937500811135
:100590000EC084EF91E09093D5008093D4008091B9
:1005A000CD0088608093CD0085E08093750082E067
:1005B00080936000809182008F5F80938200089515
:1005C0008091D4009091D500893E9340C8F08091ED
:1005D000CD00877F8093CD001092D5001092D4007B
:1005E00010927500089584EF91E09093D500809368
:1005F000D4008091CD0088608093CD0085E0ADCFA0
:1006000008951F93CF93DF93EC014B815C811A8196
:100610004115510511F113FF07C0612F637020E0F0
:1006200088810E945A0C16C012FF14C0BA0180E0E3
:1006300090E00E94ED0E2FE832EC45E75EE30E9469
:10064000590E0E94C10E137020E0AB01612F88810A
:100650000E94C00B1C821B8216C0812F8C7059F423
:10066000812F83700E94A20469818881DF91CF91DC
:100670001F910C9491040E94C604882321F08A8162
:10068000877F8B7F8A83DF91CF911F9108950E948E
:1006900045020E947B0180917B00882319F086E748
:1006A00090E010C080917500882319F080E790E0F9
:1006B00009C080916600882319F081E690E002C0AD
:1006C0008CE790E00C94010308950895089508952F
:1006D0008091B400843010F01092B400089584E04A
:1006E0008093B400089587B38C7787BB88B38C77E9
:1006F00088BB80919F0083FF02C0BF9AC79A8091F8
:100700009F0084FF02C0B99AC19A80919F0085FF23
:1007100002C0B89AC09A84B38F7884BB85B38F78AF
:1007200085BB24B380919F0030E1839FC0011124D9
:100730008077822B84BB25B380919F0030E1839F1B
:10074000C00111248077822B85BB8091B400811178
:1007500006C081E090919F00911101C080E08093DC
:10076000B400089580939F000C947303C098B898C8
:10077000000086B3817090919F0095FF02C0B89AE7
:10078000C09A0895AE98A698000083B380749091A3
:100790009F0092FF02C0A69AAE9A089590936F00B0
:1007A00080936E000895CF938091EC008333C0F066
:1007B0000E94B603C82F0E94C2039091A0009C1310
:1007C00004C09091FD00981749F0C093A000809359
:1007D000FD00E0916E00F0916F0009951092EC0021
:1007E000CF91089536990AC0806487B986ED86B99D
:1007F0003699FECF349A84B195B1089580E090E0A7
:100800000895806487B986ED86B90895369943C006
:100810008091950090E08730910598F5FC01EF5CA0
:10082000FF4F84B195B10C94B10F90930101809367
:10083000000186E423C0909306018093050185E4BE
:100840001DC09093F7008093F60083E417C0909347
:10085000C0008093BF0082E411C09093E6008093B3
:10086000E50080E40BC09093F4008093F30081E4F2
:1008700005C09093BE008093BD0087E487B986EDE4
:1008800086B980919500863019F4109295000895EC
:100890008F5F8093950008951F920F920FB60F926D
:1008A00011248F939F938091FB009091FC000196FF
:1008B0009093FC008093FB008091F1009091F200F6
:1008C00001969093F2008093F1009F918F910F9089
:1008D0000FBE0F901F9018951F920F920FB60F9298
:1008E00011248F939F938091ED009091EE000196DB
:1008F0009093EE008093ED008091C7009091C80026
:1009000001969093C8008093C7009F918F910F909C
:100910000FBE0F901F90189590936D0080936C0000
:100920000895893C08F088EC90E09093A6008093AD
:10093000A500693C08F068EC70E07093A400609337
:10094000A3000895809384002FEF280F91E02230B8
:1009500008F090E0909388008D7F91E0813009F05D
:1009600090E0909387000895292F221F2227221FAD
:1009700020938800771F7727771F709387001816BA
:10098000190614F0819561950C94910490919E0044
:10099000937081E009F080E008951092A600109213
:1009A000A5001092A4001092A3001092B000109223
:1009B000AF001092EB001092EA0080919E008E7FB3
:1009C0008D7F80939E008093FF00E0916C00F091FA
:1009D0006D000994633D08F062ED70E07093C6000D
:1009E0006093C500833D08F082ED90E09093B600DF
:1009F0008093B5000895809386006093850080936E
:100A0000880060938700882311F0AA9A01C0AA98F1
:100A1000662311F0AB9A0895AB9808959091AA00BF
:100A2000992321F099B7906899BFF8CF6F7370E060
:100A300070638F7320E4829FC0011124682B792B8F
:100A40007093CA006093C9008091A900806480936C
:100A5000A90008951F920F920FB60F9211248F9341
:100A60009F9380916B008230B0F580919400882331
:100A7000D1F08C3338F48091E3009091E40096FF3C
:100A800007C008C08091E3009091E40096FF02C087
:100A9000979803C082B3805882BB809194008150A4
:100AA0008093940030C08091AA009798882359F1D0
:100AB0008091E3009091E400880F991F9093E400E7
:100AC0008093E30088E7809394008091AA0081508E
:100AD0008093AA0018C08091AE00882391F0809185
:100AE000A90080FD05C088B390E4892788BB03C0B6
:100AF00085B3805885BB8091AE0081508093AE0055
:100B000002C0C69AAF9A9F918F910F900FBE0F901F
:100B10001F9018951F920F920FB60F9211248F936A
:100B200080916B00833011F0863079F48091A900B8
:100B300084FD0BC08091A90085FF07C0B29905C054
:100B40008091FE008F5F8093FE0086B38091A900A4
:100B50008D7F8093A9008F910F900FBE0F901F90F3
:100B6000189590936A0080936900089590936800A7
:100B70008093670008958091C1009091C200029710
:100B800008F43CC18091A90084FD19C180916B00DB
:100B9000823009F467C028F4882369F0813091F02D
:100BA00014C1853009F4AFC0863009F4C5C0833064
:100BB00009F00BC16FC089B78F7789BF9798C69A24
:100BC000AF9A03C18091AA0081112AC08091A90027
:100BD00086FF14C08091C9009091CA009093E400F0
:100BE0008093E3008EE08093AA008091A9008F7B20
:100BF0008093A90089B7806889BF06C089B78F77BD
:100C000089BF9798C69AAF9A8091930091E0980F08
:100C100090939300843138F082E080936B0003C09E
:100C200089B7806889BF8091A90083FFCEC0E09119
:100C30006900F0916A008091020190910301099589
:100C400080910201909103019093B2008093B100D2
:100C500010920301109202018091A900877F809376
:100C6000A900B3C089B78F7789BF9798C69AAF9A02
:100C70001092AE001092FE0010929200109291001D
:100C80008091A9008E7F80628093A90083E0809389
:100C9000930077C08091AE00811110C080919300C5
:100CA00091E0980F90939300833040F089B780686B
:100CB00089BF88E28093AE00109293008091DF009C
:100CC000882321F08091FE00823020F48091FE0084
:100CD000863038F01092FE0081E08093DF0085E0DE
:100CE00050C080919100909192009C012F5F3F4FE6
:100CF00030939200209391000E9708F466C01092F2
:100D0000DF0085E051C089B78F7789BF9798C69A71
:100D1000AF9A1092AE001092FE00109292001092C4
:100D200091008091A900816080628093A90083E096
:100D30008093930086E025C08091AE00811110C0A1
:100D40008091930091E0980F90939300833040F04E
:100D500089B7806889BF88E28093AE0010929300C3
:100D60008091E800882321F08091FE00823020F4F9
:100D70008091FE00863040F01092FE0081E080936A
:100D8000E80080936B0021C08091910090919200C7
:100D90009C012F5F3F4F30939200209391000E975C
:100DA000A0F01092E80081E080936B0089B78F7704
:100DB00089BF9798C69AAF9A1092AE0006C010925B
:100DC000920010929100109293009091DF00209178
:100DD00090008091E800291304C020918F0028170B
:100DE00049F09093900080938F00E0916700F0911C
:100DF000680009951092C2001092C10008951092E7
:100E00006B0089B78F7789BF9798C69AAF9A10926F
:100E1000E8001092DF00089589B78F7789BF97980F
:100E2000C69AAF9A1092E8001092DF0081E080939A
:100E30006B0008958E989698BB98C398C698AF9803
:100E400008958E9A969ABB98C39808958E9896980E
:100E5000BB9AC39A08958E9A969ABB9AC39A08959C
:100E6000C49A8091B400843018F483E08093B40075
:100E70000895C4988091B400843060F4811107C053
:100E800081E090919F00911103C080E001C081E05A
:100E90008093B40008951F920F920FB60F92112401
:100EA0002F933F934F935F936F937F938F939F9372
:100EB000AF93BF9380919C0090919D000196909379
:100EC0009D0080939C008091F5008F5F8093F500DA
:100ED0008091F80091E0980F9093F800893008F421
:100EE00047C18091CD0080FF09C08091CE009091D4
:100EF000CF0001969093CF008093CE008091CD00DB
:100F000081FF09C08091D0009091D100019690930B
:100F1000D1008093D0008091CD0082FF09C08091E4
:100F2000D2009091D30001969093D3008093D20089
:100F30008091CD0083FF09C08091D4009091D500AD
:100F400001969093D5008093D4008091CD0084FFCA
:100F500009C08091D6009091D70001969093D70058
:100F60008093D6008091CD0085FF09C08091D80084
:100F70009091D90001969093D9008093D8008091E8
:100F8000CD0086FF09C08091DA009091DB000196C8
:100F90009093DB008093DA008091CD0087FF09C039
:100FA0008091DC009091DD0001969093DD008093AC
:100FB000DC008091E90091E0980F9093E900893C72
:100FC000E8F08091C7009091C8009093FA00809358
:100FD000F9008091F1009091F2009093B800809315
:100FE000B7001092C8001092C7001092F200109241
:100FF000F10081E08093B3001092E9004091B400C9
:10100000433008F052C0423081F580919F00811139
:1010100020C080918D0090918E009C012F5F3F4FEA
:1010200030938E0020938D0068EC70E00E947B0F5F
:10103000892BD9F5213A3F4028F0B998C1981092F0
:10104000B40029C087B3842787BB88B3842788BBB3
:101050002CC084FD02C0B998C19810928E001092E5
:101060008D0081E08093B40020C080918D0090912C
:101070008E00813E2EE2920798F0413049F41092A2
:10108000B40080919F0084FD06C0B998C19803C048
:1010900082E08093B40010928E0010928D0005C003
:1010A000019690938E0080938D008091C100909165
:1010B000C200039748F48091C1009091C20001964C
:1010C0009093C2008093C1008091E100873318F4AF
:1010D0008F5F8093E1008091EC00843328F480914D
:1010E000EC008F5F8093EC008091E70091E0980F17
:1010F0009093E7008330D0F14091E200242F30E05C
:101100008091C5009091C6002817390759F028171B
:10111000390714F44F5F01C041504093E2008091C1
:10112000E2008ABD40910401242F30E08091B50097
:101130009091B6002817390759F02817390714F489
:101140004F5F01C04150409304018091040188BD6C
:1011500080910401811104C08091E200882319F07C
:1011600082EA8FBD01C01FBC1092E7001092F80008
:101170003091A90033FD47C080918B0090918C0085
:1011800020918A002F5F20938A00263198F096FDE7
:101190000AC095FF08C09093030180930201832F3A
:1011A00088608093A9008091A9008F7E8093A90018
:1011B00080E090E04091890036B3342732FF1FC0B1
:1011C000342F309530938900273040F48091A90066
:1011D0008F7E8093A90080E090E004C0009711F01A
:1011E0002F3068F02091A90020612093A90096FD7E
:1011F00002C0880F991F32FF816010928A0090937D
:101200008C0080938B00BF91AF919F918F917F91C4
:101210006F915F914F913F912F910F900FBE0F9063
:101220001F9018951092F5009091F5009817E0F333
:101230000895CF93DF93EC01209729F08AE00E9474
:1012400012092197F9CFDF91CF910895019710F0FE
:101250000000FCCF0895C82FF89497980E941A07B1
:101260001092B6001092B5001092C6001092C50000
:101270001092B0001092AF001092EB001092EA00B2
:10128000109204011092E2001ABC18BC1FBC0E940C
:1012900039078CE092E00E94240D81ED91E00E94DC
:1012A000240D8FEF8C0F8230C0F487EA91E00E940A
:1012B000240D85E991E00E94240DC13019F480E9E4
:1012C00091E002C08AE891E00E94240D89E591E056
:1012D0000E94240D8AE191E00CC0C33061F48DEFCF
:1012E00090E00E94240D8DEC90E00E94240D86E990
:1012F00090E00E94240D80E790E00E94240DD6E348
:10130000D0939F000E947303CAE080E090E80E949F
:101310002609C150D1F710929F000E947303CAE0C2
:101320008FEF9FEF0E942609C150D1F7E9CF80913E
:10133000E100823308F475C01092E1002091DE00D4
:10134000809105019091060121113CC040919E00C1
:10135000833023E0920738F42091F6003091F700B3
:1013600023303340E0F08091E0008F5F8093E00015
:101370008AE08093DE001092B6001092B5001092C1
:10138000C6001092C5001092B0001092AF001092EB
:10139000EB001092EA00446040939E000895242FD1
:1013A0002B7F20939E002091AB00253628F01092D1
:1013B000E0001092AB0006C02091E000233010F056
:1013C00083E014C08639910598F48091B70090911C
:1013D000B800892B69F48091A5009091A600892B13
:1013E00039F080910401873918F081E00E942B09BF
:1013F0008091F6009091F7008639910590F48091E4
:10140000F9009091FA00892B61F48091A3009091EA
:10141000A400892B31F08091E200873910F082E03E
:10142000E5CF8091B300882309F48EC18091DE005E
:10143000811185C18091E000882331F08091AB005B
:101440008F5F8093AB0002C01092AB0040919E0072
:1014500041FF39C02091FB003091FC008091A10038
:101460009091A2002817390788F01092A6001092D8
:10147000A5001092B0001092AF001092B60010922A
:10148000B500842F8D7F80939E001DC02091FB00AE
:101490003091FC008091B9009091BA00281739076B
:1014A00090F08091A5009091A600969587959093D5
:1014B000A6008093A500469730F486E190E09093D3
:1014C000A6008093A50040919E0040FF39C0209166
:1014D000ED003091EE008091C3009091C400281778
:1014E000390788F01092A4001092A3001092EB002C
:1014F0001092EA001092C6001092C500842F8E7FD1
:1015000080939E001DC02091ED003091EE008091EF
:10151000EF009091F0002817390790F08091A30018
:101520009091A400969587959093A4008093A30032
:10153000469730F486E190E09093A4008093A30056
:101540008091880090918600891307C020918700C0
:1015500090918500291709F451C04091A500509140
:10156000A6002091A3003091A4004115510519F463
:101570002115310501F15093A8004093A700309345
:10158000BC002093BB001092A6001092A500109200
:10159000A4001092A3001092C6001092C5001092F1
:1015A000B6001092B5001092B0001092AF001092E9
:1015B000EB001092EA009FB5911120C06091870066
:1015C0000E94FB042091A7003091A8003093A60050
:1015D0002093A5008091BB009091BC009093A40043
:1015E0008093A300369527953093B0002093AF00E9
:1015F000969587959093EB008093EA002091A50043
:101600003091A6008091B7009091B800A901481BC5
:10161000590BCA014091AF005091B000840F951F43
:10162000853A51E0950714F084EA91E09093B00078
:101630008093AF008091AF009091B0008C359E4FA9
:1016400034F48CE59EEF9093B0008093AF008091CE
:10165000B7009091B800892B31F4232B21F410921C
:10166000B0001092AF008091AF009091B00097FD54
:10167000019695958795833D910514F082ED90E054
:101680009093B6008093B5008091B5009091B6001C
:1016900097FF04C01092B6001092B5002091A300ED
:1016A0003091A4008091F9009091FA00A901481BA3
:1016B000590BCA014091EA005091EB00840F951F2D
:1016C000853A51E0950714F084EA91E09093EB009D
:1016D0008093EA008091EA009091EB008C359E4F58
:1016E00034F48CE59EEF9093EB008093EA008091B8
:1016F000F9009091FA00892B31F4232B21F41092F8
:10170000EB001092EA008091EA009091EB0097FDC7
:10171000019695958795833D910514F082ED90E0B3
:101720009093C6008093C5008091C5009091C6003B
:1017300097FF08C01092C6001092C50003C08150E8
:101740008093DE001092B30080919E009091FF0084
:10175000981739F08093FF00E0916C00F0916D00D4
:1017600009940895D49ADC9A0895DC98D498089541
:101770000E9406040E94BB050E94D3030C949709A3
:10178000EF92FF921F93CF93DF931F92CDB7DEB7F7
:10179000162F7A0190919E009160926090939E0026
:1017A0001092F0001092EF001092BA001092B9005F
:1017B000873180F046EF5FEF481B5109440F551FFA
:1017C0004E0D5F1D5093F0004093EF005093BA0010
:1017D0004093B900A701425051095093C40040936F
:1017E000C3005093A2004093A10098E2E916F104CF
:1017F000C0F444E150E05093C4004093C3005093C0
:10180000A2004093A1004AE050E05093F0004093C2
:10181000EF005093BA004093B900A8E2EA2EF12CF1
:1018200005C0E0E9EE16E1E0FE0698F4893288F0A2
:10183000A7015695479556954795C701841B950B6B
:101840009093F0008093EF009093BA008093B900DA
:1018500088E21092FC001092FB001092EE001092B1
:10186000ED00682F29830E949104812F0E94A20419
:10187000F092CC00E092CB00F092AD00E092AC0090
:1018800080919E008093FF00E0916C00F0916D00CC
:1018900009952981222339F00E94C604811103C0D1
:1018A0000E94B80BF9CF0F90DF91CF911F91FF905D
:1018B000EF900895FF920F931F93CF93DF93182F0C
:1018C000F62E022F80919E008160826080939E00A0
:1018D0009A01A0EBB2E00E94B70F24E630E040E0AE
:1018E00050E00E948F0FE901C9018456910990933D
:1018F000F0008093EF009093BA008093B90030938A
:10190000C4002093C3003093A2002093A10028328A
:101910003105B0F444E150E05093C4004093C3005B
:101920005093A2004093A1004AE050E05093F00091
:101930004093EF005093BA004093B900C8E2D0E062
:10194000612F812F0E9491048F2D0E94A20410927A
:10195000FC001092FB001092EE001092ED00D0936C
:10196000CC00C093CB00D093AD00C093AC0080916D
:101970009E008093FF00E0916C00F0916D0009954E
:10198000002339F00E94C604811103C00E94B80BE5
:10199000F9CFDF91CF911F910F91FF9008951BBA5E
:1019A00018BA15BA81E082BB1ABA88E587BB8CE801
:1019B00084BB82EF81BBF894C598BD9A97980E942A
:1019C0001A0710BC8CE089B91BB886E880BD88E98D
:1019D0008AB917B886E186B910BE85E085BF80EE6A
:1019E0008BBF14BE8AE083BF83E68CBF82EA8FBDC3
:1019F00081E18EBD82ED90E097BD86BD1ABC18BC1A
:101A000060E080E00E94FB0489E085BD8EE683BD36
:101A100082E089BF8091A90081608093A90081E064
:101A200080936B00789408955D9BFECF8CB90895E8
:101A3000CF93DF93EC018991882319F00E94140D54
:101A4000FACFDF91CF910895CF93DF93FC0184917A
:101A5000EF012196882321F00E94140DFE01F7CF9B
:101A6000DF91CF9108950F931F93CF93DF931F9230
:101A7000CDB7DEB78C01040F111DF80181918F01E4
:101A8000882341F0662331F069830E94140D698137
:101A90006150F3CF0F90DF91CF911F910F91089577
:101AA000CF93DF93CDB7DEB761970FB6F894DEBF63
:101AB0000FBECDBF462F50E0BE016F5F7F4F0E942B
:101AC000C60FCE0101960E94180D61960FB6F894CC
:101AD000DEBF0FBECDBFDF91CF910895EF92FF9291
:101AE0000F931F93CF93DF93CDB7DEB761970FB6F8
:101AF000F894DEBF0FBECDBFE42E462F50E08E011E
:101B00000F5F1F4FB8010E94C60FF801019000201F
:101B1000E9F73197E01BF10BFE2CFE1A1F1454F469
:101B2000FA9480E30E94140DF110FACFC8010E94CC
:101B3000180D06C04F2D41956E2DC8010E94330D22
:101B400061960FB6F894DEBF0FBECDBFDF91CF9187
:101B50001F910F91FF90EF9008951F920F920FB673
:101B60000F9211242F938F939F93EF93FF93909154
:101B7000960080919700292F281B2032A8F4E0912D
:101B8000980081E08E0F80939800F0E02CB1E85F20
:101B9000FE4F20839F5F90939600813210F0109249
:101BA00098001092070106C08CB180939B0081E0E1
:101BB00080930701FF91EF919F918F912F910F904B
:101BC0000FBE0F901F9018951092070180919700FB
:101BD000909196009817A1F08F5F80939700809165
:101BE0009900813210F010929900E091990081E003
:101BF0008E0F80939900F0E0E85FFE4F808108959A
:101C000080E0089510920701282FFC018E2F821B7F
:101C100090919700309196003917B9F08617A8F483
:101C20009F5F90939700A091990081E08A0F809325
:101C30009900B0E0A85FBE4F8C918193809199008C
:101C4000813220F310929900E1CF0895809196009F
:101C500090919700891B089557988CB180939A00B2
:101C6000109299001092980010929700109296008E
:101C700010920701579A08950E94CF0C8FE30E949B
:101C8000B20384EC99E00E94190984E20E94B20335
:101C900080E691E00E94CE0386E391E00E94B605C3
:101CA0000E9430070E9426070E9447030E94B80B3B
:101CB000FBCF0CD0E6C0DED040F0D5D030F021F420
:101CC0005F3F19F0C7C0511110C1CAC0EBD098F3E3
:101CD0009923C9F35523B1F3951B550BBB27AA27AD
:101CE00062177307840738F09F5F5F4F220F331F1F
:101CF000441FAA1FA9F333D00E2E3AF0E0E830D0EB
:101D000091505040E695001CCAF729D0FE2F27D0ED
:101D1000660F771F881FBB1F261737074807AB07BB
:101D2000B0E809F0BB0B802DBF01FF2793585F4F30
:101D30002AF09E3F510568F08DC0D7C05F3FECF39D
:101D4000983EDCF3869577956795B795F7959F5FF5
:101D5000C9F7880F911D9695879597F90895E1E049
:101D6000660F771F881FBB1F621773078407BA07A8
:101D700020F0621B730B840BBA0BEE1F88F7E09503
:101D8000089598D088F09F5790F0B92F9927B751B0
:101D9000A0F0D1F0660F771F881F991F1AF0BA952F
:101DA000C9F712C0B13081F09FD0B1E008959CC056
:101DB000672F782F8827B85F39F0B93FCCF3869525
:101DC00077956795B395D9F73EF490958095709582
:101DD00061957F4F8F4F9F4F0895E89409C097FBFF
:101DE0003EF490958095709561957F4F8F4F9F4FF2
:101DF0009923A9F0F92F96E9BB279395F695879536
:101E000077956795B795F111F8CFFAF4BB0F11F4F8
:101E100060FF1BC06F5F7F4F8F4F9F4F16C088239F
:101E200011F096E911C0772321F09EE8872F762FD5
:101E300005C0662371F096E8862F70E060E02AF016
:101E40009A95660F771F881FDAF7880F9695879502
:101E500097F9089597F99F6780E870E060E008952A
:101E60009FEF80EC089500240A94161617061806B2
:101E70000906089500240A9412161306140605068E
:101E80000895092E0394000C11F4882352F0BB0F1F
:101E900040F4BF2B11F460FF04C06F5F7F4F8F4F82
:101EA0009F4F089557FD9058440F551F59F05F3FBD
:101EB00071F04795880F97FB991F61F09F3F79F06C
:101EC00087950895121613061406551FF2CF4695EE
:101ED000F1DF08C0161617061806991FF1CF869570
:101EE0007105610508940895E894BB276627772754
:101EF000CB0197F90895AA1BBB1B51E107C0AA1F8C
:101F0000BB1FA617B70710F0A61BB70B881F991F9A
:101F10005A95A9F780959095BC01CD010895A1E24D
:101F20001A2EAA1BBB1BFD010DC0AA1FBB1FEE1F53
:101F3000FF1FA217B307E407F50720F0A21BB30B9E
:101F4000E40BF50B661F771F881F991F1A9469F71A
:101F500060957095809590959B01AC01BD01CF0176
:101F60000895EE0FFF1F0590F491E02D0994A29FB4
:101F7000B001B39FC001A39F700D811D1124911D5D
:101F8000B29F700D811D1124911D08954532510598
:101F900020F4423010F00C94D10FFB011082CB01E1
:101FA0000895BB274A3031F4992322F4BDE290957D
:101FB00081959F4F0C94DD0FBB27FB015527AA2766
:101FC000880F991FAA1FA41710F0A41B83955051C6
:101FD000B9F7A05DAA3308F0A95DA193009779F73E
:101FE000B111B1931192CB010C94F60FDC01FC01FD
:101FF000672F71917723E1F7329704C07C916D933D
:1020000070836291AE17BF07C8F30895F894FFCFAD
:102010000264640000000167036603016503640352
:00000001FF
