:100000000C9417010C94D3040C94F3040C94110673
:100010000C94B1050C9434010C9434010C9434010B
:100020000C9434010C9434010C94D2070C943401D8
:100030000C9434010C942D0E0C9434010C94340166
:100040000C9434010C9434010C9434010C9434015C
:100050000C9434018901A501CC01EA0102021B02C2
:100060003E029C04A204A804AE04B404BA04C00472
:1000700054686520526F626F74206E6565647320EA
:10008000746F206265207265736574746564206E98
:100090006F772E0A0A00596F75206E6565642074AB
:1000A0006F20636865636B204D6F746F722061739E
:1000B00073656D626C7920286F7220796F7572207C
:1000C000736F667477617265292E0A0A000A0A281E
:1000D000732E207461736B5F6D6F746F72436F6EFC
:1000E00074726F6C28292066756E6374696F6E2058
:1000F000696E205250364C696221290A000A0A238F
:100100002323204D4F544F52204F564552435552B2
:1001100052454E54202323230A00596F75206E65E3
:10012000656420746F20636865636B20456E636F40
:100130006465722F4D6F746F7220617373656D62A9
:100140006C7920286F7220796F757220736F6674D6
:1001500077617265292E0A0A00210A0A28732E2067
:100160007461736B5F6D6F746F72436F6E74726FD7
:100170006C28292066756E6374696F6E20696E2025
:100180005250364C696221290A00524947485400AE
:100190004C45465400416666656374656420636837
:1001A000616E6E656C3A000A23232320454E434F4F
:1001B00044455220284F52204D4F544F5229204D34
:1001C000414C46554E4354494F4E21202323230A88
:1001D00000232323232320414C4C204F50455241E0
:1001E00054494F4E532053544F5050454420544F80
:1001F0002050524556454E5420414E592044414DC1
:10020000414745212023232323230A000A0A2323CD
:1002100023232320454D455247454E4359205348FB
:100220005554444F574E2023232323230A001124DF
:100230001FBECFE5D8E0DEBFCDBF10E0A0E6B0E046
:10024000EAE4F1E202C005900D92A037B107D9F7B8
:1002500021E0A0E7B0E001C01D92AF32B207E1F7A4
:100260000E94BC0E0C94A3100C9400008091E50039
:100270009091EE00882331F0992321F024E220931D
:10028000A50002C01092A5002091A50080FB24F9D2
:100290002093A50021E0811120E08091A50020FBA2
:1002A00083F990FB81F98093A50021E0911120E072
:1002B0008091A50020FB80F98093A5000C94F903A0
:1002C0009091A60080910301992351F0882311F0A9
:1002D00081E00DC080918100823059F083E007C039
:1002E000882339F080918100823019F085E0809375
:1002F000810008950895E09181008E2F90E0FC0127
:100300003197E730F10508F0BFC0E65DFF4F0C9470
:100310004E1088E280937C0080917E008C7F81600B
:10032000846080937E0080918900843018F02CEDE9
:1003300030E002C020EA30E03093800020937F005C
:1003400092E0909381008E5F42C080917E0082FD9A
:100350009BC09EE190937C0090918900943060F066
:1003600024E630E03093800020937F008360809308
:100370007E00109289000AC08C7F826080937E008C
:1003800086E490E09093800080937F0080917E00CF
:10039000886080937E006EC088E280937C008091AC
:1003A0007E008C7F8160846080937E0080918900D4
:1003B000843018F02EEB30E002C026E930E03093B4
:1003C000800020937F0094E0909381008F5F809362
:1003D0008900089580917E0082FD56C09EE1909331
:1003E0007C008360886080937E00809189008430E7
:1003F000D8F18EE690E09093800080937F00109279
:100400008900089588E280937C0080917E008C7F33
:100410008160846080937E0080918900843018F030
:100420002EEB30E002C026E930E0309380002093CC
:100430007F0096E0C9CF80917E0082FD25C09EE1BD
:1004400090937C008C7F8260886080937E00809196
:100450008900843048F08EE690E09093800080938D
:100460007F001092890006C080E590E090938000A4
:1004700080937F0087E080938100089580917E00C3
:100480008C7011F410928100089580917B0082306D
:1004900009F468C030F4882351F0813009F449C070
:1004A00008958330B9F0853009F48BC00895909198
:1004B000EE008091E500992321F0882349F083E044
:1004C00004C0882309F49DC082E080937B000895D6
:1004D00081E0FBCF80916000982F9370809178002D
:1004E0008C7F892B809378008EE1809376008093B7
:1004F00077008091E500811184C08091EE00811128
:1005000080C080918800843038F01092880010926A
:10051000DB001092DA0006C080E991E09093DB00E6
:100520008093DA008091D30088608093D30085E0C7
:10053000CCCF809178008C7F809378008EE180937F
:10054000760088E2809377008091EE00882309F49A
:100550004BC08091E500882319F083E080937B00F5
:1005600083E027C0809178008C7F8093780088E2B8
:10057000809376008EE1809377009091EE008091D9
:10058000E500992329F0882329F093E090937B00DC
:1005900081110EC084EF91E09093DB008093DA002C
:1005A0008091D30088608093D30085E080937B00A6
:1005B00082E080936000809188008F5F8093880044
:1005C00008958091DA009091DB00893E9340C8F055
:1005D0008091D300877F8093D3001092DB0010922C
:1005E000DA0010927B00089584EF91E09093DB0095
:1005F0008093DA008091D30088608093D30085E0F7
:10060000ADCF08959BBD8ABD80E188BF1DBC1CBCD9
:100610008AE08EBD089508B604FEFDCF88E08EBD49
:10062000089580E281BB1FBC88E08EBD089580E202
:1006300081BB82BB87E090E00E9402030E940B0313
:1006400012BA089511BA859BFECF1DBC1CBC82E076
:100650008EBD8599FECF88E08EBD8CB59DB564E7D3
:1006600070E00E941810CB01992708950E94220380
:10067000892B11F183E0809375008091E50090E073
:1006800080FB94F99093A50091E0811190E0809116
:10069000A50090FB83F92091EE0020FB81F9809367
:1006A000A50091E0211190E08091A50090FB80F9D8
:1006B0008093A5000C94F903089580917500833010
:1006C00031F0853099F0811113C00C942203809190
:1006D00072008C7F809372008EE18093700088E2BC
:1006E0008093710085E080937500089510927500E5
:1006F00008950F931F93CF938C01FC014381548184
:10070000C2814115510521F1C3FF07C06C2F6370F1
:1007100020E080810E94D80C17C0C2FF15C0BA012A
:1007200080E090E00E948A0F2FE832EC45E75EE31C
:100730000E94E90E0E945B0FC37020E0AB016C2F9A
:10074000F80180810E943E0CF8011482138218C0C7
:100750008C2F8C7061F48C2F83700E942905F80116
:1007600061818081CF911F910F910C9418050E9497
:100770004D05882329F0F8018281877F8B7F828352
:10078000CF911F910F9108950E9445020E947B0115
:100790000E945D0380917500882319F080E790E046
:1007A00017C080918100882319F08CE790E010C079
:1007B00080917B00882319F086E790E009C0809142
:1007C0006600882319F081E690E002C082E890E09C
:1007D0000C94790308950895089508958091BA00BE
:1007E000843010F01092BA00089584E08093BA002B
:1007F000089587B38C7787BB88B38C7788BB80914B
:10080000A50083FF02C0BF9AC79A8091A50084FF0C
:1008100002C0B99AC19A8091A50085FF02C0B89A1A
:10082000C09A84B38F7884BB85B38F7885BB24B39B
:100830009091A50030E1939FC00111248077822B15
:1008400084BB25B39091A50030E1939FC001112492
:100850008077822B85BB8091BA00811106C081E030
:100860009091A500911101C080E08093BA00089595
:100870008093A5000C94F903C098B898000086B343
:1008800081709091A50095FF02C0B89AC09A089512
:10089000AE98A698000083B380749091A50092FF53
:1008A00002C0A69AAE9A089590936F0080936E004E
:1008B0000895CF938091F2008333C0F00E943C04EE
:1008C000C82F0E9448049091A6009C1304C09091E8
:1008D0000301981749F0C093A60080930301E091AB
:1008E0006E00F0916F0009951092F200CF9108957B
:1008F00036990AC0806487B986ED86B93699FECFED
:10090000349A84B195B1089580E090E008958064B0
:1009100087B986ED86B90895369944C0E0919B0069
:100920008E2F90E08730910598F5FC01EF5CFF4F2A
:1009300084B195B10C944E109093070180930601F9
:1009400086E423C090930C0180930B0185E41DC0C5
:100950009093FD008093FC0083E417C09093C60041
:100960008093C50082E411C09093EC008093EB006B
:1009700080E40BC09093FA008093F90081E405C0F5
:100980009093C4008093C30087E487B986ED86B94D
:1009900080919B00863019F410929B0008958F5F20
:1009A00080939B0008951F920F920FB60F9211240F
:1009B0008F939F93809101019091020101969093F2
:1009C0000201809301018091F7009091F800019657
:1009D0009093F8008093F7009F918F910F900FBE36
:1009E0000F901F9018951F920F920FB60F9211241F
:1009F0008F939F938091F3009091F40001969093D0
:100A0000F4008093F3008091CD009091CE00019688
:100A10009093CE008093CD009F918F910F900FBE49
:100A20000F901F90189590936D0080936C0008951F
:100A3000893C08F088EC90E09093AC008093AB0088
:100A4000693C08F068EC70E07093AA006093A9001C
:100A5000089580938A002FEF280F91E0223008F04C
:100A600090E090938E008D7F91E0813009F090E0CE
:100A700090938D000895292F221F2227221F209353
:100A80008E00771F7727771F70938D001816190631
:100A900014F0819561950C9418059091A4009370C1
:100AA00081E009F080E008951092AC001092AB0054
:100AB0001092AA001092A9001092B6001092B500F0
:100AC0001092F1001092F0008091A4008E7F8D7F33
:100AD0008093A40080930501E0916C00F0916D007B
:100AE0000994633D08F062ED70E07093CC00609370
:100AF000CB00833D08F082ED90E09093BC008093A2
:100B0000BB00089580938C0060938B0080938E00CF
:100B100060938D00882311F0AA9A01C0AA986623D9
:100B200011F0AB9A0895AB9808959091B000992375
:100B300021F099B7906899BFF8CF6F7370E0706338
:100B40008F7320E4829FC0011124862B972B9093F2
:100B5000D0008093CF008091AF0080648093AF007D
:100B600008951F920F920FB60F9211248F939F93A7
:100B700080916B008230B0F580919A008823D1F08B
:100B80008C3338F48091E9009091EA0096FF07C019
:100B900008C08091E9009091EA0096FF02C0979802
:100BA00003C082B3805882BB80919A0081508093A9
:100BB0009A0030C08091B0009798882359F18091B5
:100BC000E9009091EA00880F991F9093EA008093C2
:100BD000E90088E780939A008091B000815080936B
:100BE000B00018C08091B400882391F08091AF00CC
:100BF00080FD05C098B380E4892788BB03C085B316
:100C0000805885BB8091B40081508093B40002C0AD
:100C1000C69AAF9A9F918F910F900FBE0F901F9021
:100C200018951F920F920FB60F9211248F938091F7
:100C30006B00833011F0863079F48091AF0084FD31
:100C40000BC08091AF0085FF07C0B29905C08091AD
:100C500004018F5F8093040186B38091AF008D7F84
:100C60008093AF008F910F900FBE0F901F9018953B
:100C700090936A0080936900089590936800809330
:100C8000670008958091C7009091C800029708F40A
:100C90003CC18091AF0084FD19C180916B0082300E
:100CA00009F467C028F4882369F0813091F014C1F9
:100CB000853009F4AFC0863009F4C5C0833009F02F
:100CC0000BC16FC089B78F7789BF9798C69AAF9AC3
:100CD00003C18091B00081112AC08091AF0086FFCE
:100CE00014C08091CF009091D0009093EA0080933F
:100CF000E9008EE08093B0008091AF008F7B8093FD
:100D0000AF0089B7806889BF06C089B78F7789BF70
:100D10009798C69AAF9A8091990091E0980F909316
:100D20009900843138F082E080936B0003C089B76A
:100D3000806889BF8091AF0083FFCEC0E0916900D9
:100D4000F0916A00809108019091090109958091C4
:100D50000801909109019093B8008093B700109218
:100D60000901109208018091AF00877F8093AF0046
:100D7000B3C089B78F7789BF9798C69AAF9A1092F8
:100D8000B400109204011092980010929700809184
:100D9000AF008E7F80628093AF0083E080939900E4
:100DA00077C08091B400811110C08091990091E0CA
:100DB000980F90939900833040F089B7806889BF7D
:100DC00088E28093B400109299008091E500882316
:100DD00021F080910401823020F48091040186305A
:100DE00038F01092040181E08093E50085E050C066
:100DF00080919700909198009C012F5F3F4F309316
:100E00009800209397000E9708F466C01092E500B2
:100E100085E051C089B78F7789BF9798C69AAF9AF6
:100E20001092B40010920401109298001092970052
:100E30008091AF00816080628093AF0083E08093F7
:100E4000990086E025C08091B400811110C0809186
:100E5000990091E0980F90939900833040F089B702
:100E6000806889BF88E28093B400109299008091D5
:100E7000EE00882321F080910401823020F48091DB
:100E80000401863040F01092040181E08093EE006E
:100E900080936B0021C080919700909198009C01F5
:100EA0002F5F3F4F30939800209397000E97A0F04C
:100EB0001092EE0081E080936B0089B78F7789BF35
:100EC0009798C69AAF9A1092B40006C010929800F4
:100ED00010929700109299009091E5002091960051
:100EE0008091EE00291304C020919500281749F045
:100EF0009093960080939500E0916700F0916800D0
:100F000009951092C8001092C700089510926B00C6
:100F100089B78F7789BF9798C69AAF9A1092EE00DB
:100F20001092E500089589B78F7789BF9798C69A80
:100F3000AF9A1092EE001092E50081E080936B0072
:100F400008958E989698BB98C398C698AF980895C0
:100F50008E9A969ABB98C39808958E989698BB9A45
:100F6000C39A08958E9A969ABB9AC39A0895C49A82
:100F70008091BA00843018F483E08093BA00089519
:100F8000C4988091BA00843060F4811107C081E078
:100F90009091A500911103C080E001C081E0809391
:100FA000BA0008951F920F920FB60F9211242F933B
:100FB0003F934F935F936F937F938F939F93AF93E1
:100FC000BF93EF93FF938091A2009091A3000196AD
:100FD0009093A3008093A2008091FB008F5F809389
:100FE000FB008091FE0091E0980F9093FE00893005
:100FF00008F446C18091D30080FF09C08091D400DD
:101000009091D50001969093D5008093D400809163
:10101000D30081FF09C08091D6009091D70001963E
:101020009093D7008093D6008091D30082FF09C0AF
:101030008091D8009091D90001969093D900809327
:10104000D8008091D30083FF09C08091DA0090918D
:10105000DB0001969093DB008093DA008091D3004F
:1010600084FF09C08091DC009091DD00019690938F
:10107000DD008093DC008091D30085FF09C0809162
:10108000DE009091DF0001969093DF008093DE00F8
:101090008091D30086FF09C08091E0009091E1002B
:1010A00001969093E1008093E0008091D30087FF48
:1010B00009C08091E2009091E30001969093E300D3
:1010C0008093E2008091EF0091E0980F9093EF0001
:1010D000893CE8F08091CD009091CE009093000182
:1010E0008093FF008091F7009091F8009093BE00EC
:1010F0008093BD001092CE001092CD001092F800A7
:101100001092F70081E08093B9001092EF002091D7
:10111000BA00233008F051C0223079F58091A50043
:1011200081111FC08091930090919400FC01319631
:10113000F0939400E093930068EC70E00E94181024
:10114000892BD9F5E13AFF4028F0B998C19810925F
:10115000BA0029C087B3822787BB88B3282728BB5A
:101160002CC084FD02C0B998C198109294001092CE
:10117000930081E08093BA0020C080919300909109
:101180009400813E3EE2930798F0213049F410929A
:10119000BA008091A50084FD06C0B998C19803C02B
:1011A00082E08093BA00109294001092930005C0E0
:1011B000019690939400809393008091C700909142
:1011C000C800039748F48091C7009091C800019629
:1011D0009093C8008093C7008091E700873318F48C
:1011E0008F5F8093E7008091F200843328F4809130
:1011F000F2008F5F8093F2008091ED0091E0980FF4
:101200009093ED008330D0F18091E800482F50E0BA
:101210002091CB003091CC004217530759F0421770
:10122000530714F48F5F01C081508093E8008091D0
:10123000E8008ABD80910A01482F50E02091BB0050
:101240003091BC004217530759F04217530714F46A
:101250008F5F01C0815080930A0180910A0188BD8F
:1012600080910A01811104C08091E800882319F05F
:1012700082EA8FBD01C01FBC1092ED001092FE00EB
:101280003091AF0033FD46C0809191009091920063
:10129000209190002F5F20939000263198F096FDCA
:1012A0000AC095FF08C09093090180930801832F1D
:1012B00088608093AF008091AF008F7E8093AF00F5
:1012C00080E090E030918F0046B3432742FF1EC07C
:1012D000309530938F00273040F48091AF008F7E9F
:1012E0008093AF0080E090E004C0009711F02F30B1
:1012F00068F02091AF0020612093AF0096FD02C0FE
:10130000880F991F32FF8160109290009093920095
:1013100080939100FF91EF91BF91AF919F918F9139
:101320007F916F915F914F913F912F910F900FBEE1
:101330000F901F9018951092FB009091FB0098174A
:10134000E0F30895CF93DF93EC01209729F08AE032
:101350000E949B092197F9CFDF91CF9108950197C2
:1013600010F00000FCCF0895C82FF89497980E94C1
:10137000A1071092BC001092BB001092CC001092FA
:10138000CB001092B6001092B5001092F1001092AE
:10139000F00010920A011092E8001ABC18BC1FBCA1
:1013A0000E94C0078CE092E00E94A30D81ED91E0C5
:1013B0000E94A30D8FEF8C0F8230C0F487EA91E07A
:1013C0000E94A30D85E991E00E94A30DC13019F49C
:1013D00080E991E002C08AE891E00E94A30D89E5CE
:1013E00091E00E94A30D8AE191E00CC0C33061F44A
:1013F0008DEF90E00E94A30D8DEC90E00E94A30D74
:1014000086E990E00E94A30D80E790E00E94A30D82
:10141000D6E3D093A5000E94F903CAE080E090E8EB
:101420000E94AF09C150D1F71092A5000E94F903A4
:10143000CAE08FEF9FEF0E94AF09C150D1F7E9CF0B
:101440008091E700823308F474C01092E700809125
:10145000E40020910B0130910C0181113BC080917F
:10146000A400233043E0340738F44091FC0050914D
:10147000FD0043305340E0F09091E6009F5F909371
:10148000E6009AE09093E4001092BC001092BB003A
:101490001092CC001092CB001092B6001092B500C2
:1014A0001092F1001092F00084608093A4000895DF
:1014B0008B7F8093A4008091B100853628F0109234
:1014C000E6001092B10006C08091E600833010F073
:1014D00083E014C02639310598F48091BD009091C5
:1014E000BE00892B69F48091AB009091AC00892BF0
:1014F00039F080910A01873918F081E00E94B4091F
:101500008091FC009091FD008639910590F48091C6
:10151000FF0090910001892B61F48091A9009091C6
:10152000AA00892B31F08091E800873910F082E021
:10153000E5CF8091B900882309F484C18091E4004B
:1015400081117BC18091E600882331F08091B10048
:101550008F5F8093B10002C01092B1008091A4000F
:1015600081FF35C040910101509102012091A700F7
:101570003091A8004217530780F01092AC001092EF
:10158000AB001092B6001092B5001092BC00109201
:10159000BB008D7F8093A4001AC02091010130917F
:1015A00002018091BF009091C0002817390778F0A0
:1015B0008091AB009091AC0096958795863191050E
:1015C00010F486E190E09093AC008093AB008091A2
:1015D000A40080FF35C04091F3005091F4002091A9
:1015E000C9003091CA004217530780F01092AA0038
:1015F0001092A9001092F1001092F0001092CC000D
:101600001092CB008E7F8093A4001AC02091F3002B
:101610003091F4008091F5009091F6002817390779
:1016200078F08091A9009091AA00969587958631CF
:10163000910510F486E190E09093AA008093A900B0
:1016400080918E0090918C00891307C020918D00AD
:1016500090918B00291709F451C04091AB00509133
:10166000AC002091A9003091AA004115510519F450
:101670002115310501F15093AE004093AD00309338
:10168000C2002093C1001092AC001092AB001092E7
:10169000AA001092A9001092CC001092CB001092D8
:1016A000BC001092BB001092B6001092B5001092D0
:1016B000F1001092F0009FB5911120C060918D0053
:1016C0000E9482052091AD003091AE003093AC00B5
:1016D0002093AB008091C1009091C2009093AA002A
:1016E0008093A900369527953093B6002093B500D6
:1016F000969587959093F1008093F0002091AB0030
:101700003091AC008091BD009091BE00A901481BB2
:10171000590B8091B5009091B600840F951F853AC2
:1017200041E0940714F084EA91E09093B60080932E
:10173000B5008091B5009091B6008C359E4F34F481
:101740008CE59EEF9093B6008093B5008091BD002C
:101750009091BE00892B31F4232B21F41092B60016
:101760001092B5008091B5009091B60097FD01965A
:1017700095958795833D910514F082ED90E09093C7
:10178000BC008093BB008091BB009091BC0097FF90
:1017900004C01092BC001092BB002091A9003091AF
:1017A000AA008091FF0090910001A901481B590BEC
:1017B0008091F0009091F100840F951F853A41E0EF
:1017C000940714F084EA91E09093F1008093F00084
:1017D0008091F0009091F1008C359E4F34F48CE5AF
:1017E0009EEF9093F1008093F0008091FF00909124
:1017F0000001892B31F4232B21F41092F100109277
:10180000F0008091F0009091F10097FD0196959580
:101810008795833D910514F082ED90E09093CC0084
:101820008093CB008091CB009091CC0097FF08C0B3
:101830001092CC001092CB0003C081508093E40042
:101840001092B9008091A40090910501981739F089
:1018500080930501E0916C00F0916D00099408956A
:10186000D49ADC9A0895DC98D49808950E948C0448
:101870000E9442060E9459040C94200AEF92FF92A3
:101880001F93CF93DF931F92CDB7DEB7162F7A0148
:101890009091A400916092609093A4001092F60041
:1018A0001092F5001092C0001092BF00873180F0B6
:1018B00046EF5FEF481B5109440F551F4E0D5F1D4A
:1018C0005093F6004093F5005093C0004093BF0042
:1018D000A701425051095093CA004093C900509348
:1018E000A8004093A70098E2E916F104C0F444E18F
:1018F00050E05093CA004093C9005093A800409311
:10190000A7004AE050E05093F6004093F500509352
:10191000C0004093BF0048E2E42EF12C05C090E9DE
:10192000E91691E0F90698F4893288F0C701969596
:10193000879596958795A701481B590B5093F600FC
:101940004093F5005093C0004093BF0088E210928E
:101950000201109201011092F4001092F300682F1E
:1019600029830E941805812F0E942905F092D20038
:10197000E092D100F092B300E092B2008091A40016
:1019800080930501E0916C00F0916D00099529812B
:10199000222339F00E944D05811103C00E94360CAC
:1019A000F9CF0F90DF91CF911F91FF90EF900895A5
:1019B000FF920F931F93CF93DF93182FF62E022FD2
:1019C0009091A400916092609093A4009A01A0EB82
:1019D000B2E00E94541024E630E040E050E00E9463
:1019E0002C10E901F901E456F109F093F600E093B7
:1019F000F500F093C000E093BF003093CA0020933D
:101A0000C9003093A8002093A70028323105B0F414
:101A100044E150E05093CA004093C9005093A8009D
:101A20004093A7004AE050E05093F6004093F50041
:101A30005093C0004093BF00C8E2D0E0612F812FD7
:101A40000E9418058F2D0E94290510920201109204
:101A500001011092F4001092F300D093D200C093D1
:101A6000D100D093B300C093B2008091A4008093C2
:101A70000501E0916C00F0916D000995002339F0AB
:101A80000E944D05811103C00E94360CF9CFDF91F1
:101A9000CF911F910F91FF900895CF931BBA18BA61
:101AA00015BAC1E0C2BB1ABA88E587BB8CE884BB13
:101AB00082EF81BBF894C598BD9A97980E94A107C0
:101AC00010BC8CE089B91BB886E880BD88E98AB96A
:101AD00017B886E186B910BE85E085BF80EE8BBF62
:101AE00014BE8AE083BF83E68CBF82EA8FBD81E1AA
:101AF0008EBD82ED90E097BD86BD1ABC18BC60E03B
:101B000080E00E94820589E085BD8EE683BD82E08B
:101B100089BF8091AF0081608093AF00C0936B005C
:101B20007894CF9108955D9BFECF8CB90895CF93A3
:101B3000DF93EC018991882319F00E94930DFACF6D
:101B4000DF91CF910895CF93DF93FC018491EF0152
:101B50002196882321F00E94930DFE01F7CFDF919B
:101B6000CF9108950F931F93CF93DF931F92CDB71B
:101B7000DEB78C01040F111DF80181918F018823BC
:101B800041F0662331F069830E94930D69816150B1
:101B9000F3CF0F90DF91CF911F910F910895CF93C5
:101BA000DF93CDB7DEB761970FB6F894DEBF0FBEF7
:101BB000CDBF462F50E0BE016F5F7F4F0E94631084
:101BC000CE0101960E94970D61960FB6F894DEBF84
:101BD0000FBECDBFDF91CF910895EF92FF920F938B
:101BE0001F93CF93DF93CDB7DEB761970FB6F8940D
:101BF000DEBF0FBECDBF042F462F50E09E012F5FEA
:101C00003F4F7901B9010E946310F7010190002054
:101C1000E9F73197EE19FF09102F1E1B111654F426
:101C2000115080E30E94930D1111FACFC7010E9459
:101C3000970D06C0412F4195602FC7010E94B20D3C
:101C400061960FB6F894DEBF0FBECDBFDF91CF9186
:101C50001F910F91FF90EF9008951F920F920FB672
:101C60000F9211242F938F939F93EF93FF93809163
:101C70009C0090919D00282F291B2032A8F4E09110
:101C80009E0091E09E0F90939E00F0E02CB1E25FE9
:101C9000FE4F20838F5F80939C00913210F0109252
:101CA0009E0010920D0106C08CB18093A10081E0CE
:101CB00080930D01FF91EF919F918F912F910F9044
:101CC0000FBE0F901F90189510920D0180919D00EE
:101CD00090919C009817A1F08F5F80939D00809158
:101CE0009F00813210F010929F00E0919F0081E0F0
:101CF0008E0F80939F00F0E0E25FFE4F8081089599
:101D000080E0089510920D01282FDC018A2F821B9C
:101D100090919D0030919C003917B9F08617A8F476
:101D20009F5F90939D00E0919F0081E08E0F8093D4
:101D30009F00F0E0E25FFE4F80818D9380919F00D5
:101D4000813220F310929F00E1CF089580919C0092
:101D500090919D00891B089557988CB18093A000A5
:101D600010929F0010929E0010929D0010929C0075
:101D700010920D01579A08950E944D0D8FE30E9415
:101D8000380484EC99E00E94A20984E20E9438049D
:101D90000E94110380E691E00E94540486E391E0E2
:101DA0000E943D060E94B7070E94AD070E941703DC
:101DB0000E94220384EC99E00E94A2098FEF9FEF1A
:101DC0000E9402030E940B030E94C4030E94360C6F
:101DD000EDCF0E94FD0E0C94DE0F0E94D70F58F03D
:101DE0000E94D00F40F029F45F3F29F00C94C70FF8
:101DF00051110C9412100C94CD0F0E94EF0F68F348
:101E00009923B1F3552391F3951B550BBB27AA27B3
:101E100062177307840738F09F5F5F4F220F331FED
:101E2000441FAA1FA9F335D00E2E3AF0E0E832D0B5
:101E300091505040E695001CCAF72BD0FE2F29D0B8
:101E4000660F771F881FBB1F261737074807AB078A
:101E5000B0E809F0BB0B802DBF01FF2793585F4FFF
:101E60003AF09E3F510578F00C94C70F0C94121075
:101E70005F3FE4F3983ED4F3869577956795B795E1
:101E8000F7959F5FC9F7880F911D9695879597F9EC
:101E90000895E1E0660F771F881FBB1F6217730765
:101EA0008407BA0720F0621B730B840BBA0BEE1F7A
:101EB00088F7E09508950E94F70F88F09F5798F0F3
:101EC000B92F9927B751B0F0E1F0660F771F881F3F
:101ED000991F1AF0BA95C9F714C0B13091F00E9459
:101EE0001110B1E008950C941110672F782F8827F6
:101EF000B85F39F0B93FCCF3869577956795B39580
:101F0000D9F73EF490958095709561957F4F8F4FEE
:101F10009F4F0895E89409C097FB3EF490958095F3
:101F2000709561957F4F8F4F9F4F9923A9F0F92F9F
:101F300096E9BB279395F695879577956795B7951D
:101F4000F111F8CFFAF4BB0F11F460FF1BC06F5F03
:101F50007F4F8F4F9F4F16C0882311F096E911C015
:101F6000772321F09EE8872F762F05C0662371F036
:101F700096E8862F70E060E02AF09A95660F771F4A
:101F8000881FDAF7880F9695879597F9089597F93E
:101F90009F6780E870E060E008959FEF80EC08950F
:101FA00000240A9416161706180609060895002438
:101FB0000A9412161306140605060895092E0394B2
:101FC000000C11F4882352F0BB0F40F4BF2B11F426
:101FD00060FF04C06F5F7F4F8F4F9F4F089557FD85
:101FE0009058440F551F59F05F3F71F04795880F87
:101FF00097FB991F61F09F3F79F08795089512161E
:1020000013061406551FF2CF4695F1DF08C01616C9
:1020100017061806991FF1CF86957105610508947A
:102020000895E894BB2766277727CB0197F9089591
:10203000AA1BBB1B51E107C0AA1FBB1FA617B707EE
:1020400010F0A61BB70B881F991F5A95A9F780950A
:102050009095BC01CD010895A1E21A2EAA1BBB1BCD
:10206000FD010DC0AA1FBB1FEE1FFF1FA217B30764
:10207000E407F50720F0A21BB30BE40BF50B661F7A
:10208000771F881F991F1A9469F76095709580953E
:1020900090959B01AC01BD01CF010895EE0FFF1F8C
:1020A0000590F491E02D0994A29FB001B39FC00167
:1020B000A39F700D811D1124911DB29F700D811D74
:1020C0001124911D08954532510520F4423010F03D
:1020D0000C946E10FB011082CB010895BB274A308F
:1020E00031F4992322F4BDE2909581959F4F0C9491
:1020F0007A10BB27FB015527AA27880F991FAA1F13
:10210000A41710F0A41B83955051B9F7A05DAA3312
:1021100008F0A95DA193009779F7B111B1931192DD
:10212000CB010C949310DC01FC01672F7191772394
:10213000E1F7329704C07C916D9370836291AE1782
:0A214000BF07C8F30895F894FFCF1D
:10214A0002646400000001ED03EC0301EB03EA03FF
:00000001FF
