:100000000C9409010C9444040C9464040C9483052E
:100010000C9423050C9426010C9426010C942601C3
:100020000C9426010C9426010C944C070C94260188
:100030000C9426010C94B80D0C9426010C94260106
:100040000C9426010C9426010C9426010C94260194
:100050000C9426010A0A232323232320454D4552CD
:1000600047454E43592053485554444F574E20233B
:10007000232323230A00232323232320414C4C2022
:100080004F5045524154494F4E532053544F5050B6
:10009000454420544F2050524556454E5420414E21
:1000A000592044414D414745212023232323230A3E
:1000B000000A23232320454E434F44455220284F16
:1000C00052204D4F544F5229204D414C46554E43DE
:1000D00054494F4E21202323230A0041666665635D
:1000E000746564206368616E6E656C3A004C4546C9
:1000F0005400524947485400210A0A28732E20749C
:1001000061736B5F6D6F746F72436F6E74726F6C3F
:1001100028292066756E6374696F6E20696E20529F
:1001200050364C696221290A00596F75206E656549
:100130006420746F20636865636B20456E636F6431
:1001400065722F4D6F746F7220617373656D626C91
:100150007920286F7220796F757220736F667477BB
:10016000617265292E0A0A000A0A232323204D4FB3
:10017000544F52204F56455243555252454E5420EB
:100180002323230A000A0A28732E207461736B5FED
:100190006D6F746F72436F6E74726F6C2829206676
:1001A000756E6374696F6E20696E205250364C69AB
:1001B0006221290A00596F75206E65656420746F8D
:1001C00020636865636B204D6F746F722061737379
:1001D000656D626C7920286F7220796F757220735B
:1001E0006F667477617265292E0A0A00546865206B
:1001F000526F626F74206E6565647320746F206245
:1002000065207265736574746564206E6F772E0A5D
:100210000A0011241FBECFE5D8E0DEBFCDBF10E03D
:10022000A0E6B0E0E4EFFFE102C005900D92A03738
:10023000B107D9F721E0A0E7B0E001C01D92A932D3
:10024000B207E1F70E94460E0C94F80F0C940000E0
:100250008091DF00882341F09091E800992321F0FC
:1002600094E290939F0002C010929F0090919F0093
:1002700080FB94F990939F0021E0811120E0909100
:100280009F0020FB93F98091E80080FB91F9909307
:100290009F0091E0811190E080919F0090FB80F998
:1002A00080939F000C9462039091A0008091FD00C8
:1002B000992351F0882311F081E00DC080917B00DB
:1002C000823059F083E007C0882339F080917B00A9
:1002D000823019F085E080937B0008950895809125
:1002E0007B00843009F474C040F4823059F108F086
:1002F00051C0813009F0B7C009C0863009F48AC006
:1003000008F46FC0873009F0AEC0A7C088E28093C0
:100310007600809178008C7F816084608093780083
:1003200020918200243018F08CED90E002C080EA29
:1003300090E090937A008093790082E080937B0034
:100340002E5F43C02091780022FD8DC08EE1809306
:10035000760080918200843060F084E690E0909393
:100360007A008093790023602093780010928200B5
:100370000BC0822F8C7F82608093780086E490E0AF
:1003800090937A00809379008091780088608093C0
:1003900078005FC088E280937600809178008C7F3F
:1003A000816084608093780020918200243018F06E
:1003B0008EEB90E002C086E990E090937A00809303
:1003C000790084E080937B002F5F20938200089562
:1003D0008091780082FD47C09EE190937600836013
:1003E00022C088E280937600809178008C7F8160C3
:1003F00084608093780020918200243018F08EEB86
:1004000090E002C086E990E090937A0080937900B2
:1004100086E0D8CF8091780082FD25C09EE1909340
:1004200076008C7F82608860809378008091820063
:10043000843048F08EE690E090937A0080937900C3
:100440001092820006C080E590E090937A0080933D
:10045000790087E080937B000895809178008C700C
:1004600011F410927B00089580917500823009F498
:1004700067C030F4882351F0813009F0B0C047C024
:100480008330B9F0853009F0AAC089C09091E800A6
:100490008091DF00992321F0882349F083E004C094
:1004A000882309F49CC082E080937500089581E060
:1004B000FBCF909166009370809172008C7F892BA6
:1004C000809372008EE18093700080937100809120
:1004D000DF00811184C08091E800811180C080918B
:1004E0008300843038F0109283001092D50010926F
:1004F000D40006C080E991E09093D5008093D400A9
:100500008091CD0088608093CD0085E0CDCF809133
:1005100072008C7F809372008EE18093700088E27D
:10052000809371008091E800882309F44BC080918A
:10053000DF00882319F083E08093750083E027C0F3
:10054000809172008C7F8093720088E280937000AB
:100550008EE1809371009091E8008091DF009923F3
:1005600029F0882329F093E09093750081110EC043
:1005700084EF91E09093D5008093D4008091CD00DA
:1005800088608093CD0085E08093750082E0809341
:100590006600809183008F5F80938300089580912F
:1005A000D4009091D500893E9340C8F08091CD0051
:1005B000877F8093CD001092D5001092D4001092C6
:1005C0007500089584EF91E09093D5008093D40056
:1005D0008091CD0088608093CD0085E0ADCF0895F7
:1005E0001F93CF93DF93EC014B815C811A814115FE
:1005F000510511F113FF07C0612F637020E088815E
:100600000E94C90B16C012FF14C0BA0180E090E02E
:100610000E94F70E2FE832EC45E75EE30E94630E7E
:100620000E94CB0E137020E0AB01612F88810E94E5
:100630003E0C1C821B8216C0812F8C7059F4812FB6
:1006400083700E94980469818881DF91CF911F9106
:100650000C9489040E94C304882321F08A81877F37
:100660008B7F8A83DF91CF911F9108950E9434027E
:100670000E946F0180917B00882319F086E790E04B
:1006800010C080917500882319F080E790E009C0C0
:1006900080916500882319F080E690E002C08CE725
:1006A00090E00C94F00208950895089508958091C3
:1006B000B400843010F01092B400089584E0809368
:1006C000B400089587B38C7787BB88B38C7788BBD9
:1006D00080919F0083FF02C0BF9AC79A80919F00BC
:1006E00084FF02C0B99AC19A80919F0085FF02C021
:1006F000B89AC09A84B38F7884BB85B38F7885BB52
:1007000024B330919F0040E1349FC00111248077D1
:100710009927282B24BB95B3982B95BB8091B400C7
:10072000811104C081E0311101C080E08093B400E8
:10073000089580939F000C946203C098B8980000BD
:1007400086B3817090919F0095FF02C0B89AC09ABD
:100750000895AE98A698000083B3807490919F008E
:1007600092FF02C0A69AAE9A089590936900809372
:1007700068000895CF938091EC008333C0F00E940D
:100780009D03C82F0E94A9039091A0009C1304C050
:100790009091FD00981749F0C093A0008093FD0050
:1007A000E0916800F091690009951092EC00CF91FA
:1007B000089536990AC0806487B986ED86B936995E
:1007C000FECF349A24B135B102C020E030E0C90137
:1007D0000895806487B986ED86B90895369953C027
:1007E00080918900833019F120F4813081F0B8F4D0
:1007F00006C0853061F118F18630D9F530C084B17A
:1008000095B1909301018093000186E42FC084B1DB
:1008100095B1909306018093050185E427C084B1CA
:1008200095B19093F7008093F60083E41FC084B1E4
:1008300095B19093C0008093BF0082E417C084B14B
:1008400095B19093E6008093E50080E40FC084B1F9
:1008500095B19093F4008093F30081E407C084B1D4
:1008600095B19093BE008093BD0087E487B986ED73
:1008700086B980918900863019F410928900089514
:100880008F5F8093890008951F920F920FB60F9289
:1008900011248F939F938091FB009091FC0001960F
:1008A0009093FC008093FB008091F1009091F20006
:1008B00001969093F2008093F1009F918F910F9099
:1008C0000FBE0F901F9018951F920F920FB60F92A8
:1008D00011248F939F938091ED009091EE000196EB
:1008E0009093EE008093ED008091C7009091C80036
:1008F00001969093C8008093C7009F918F910F90AD
:100900000FBE0F901F90189590936B0080936A0014
:100910000895893C08F088EC8093A5001092A60009
:10092000693C08F068EC6093A3001092A40008955D
:1009300080938400282F215091E0223008F090E02D
:1009400090938800813041F021E030E0833011F055
:1009500020E030E0C90102C081E090E08093870090
:100960000895292F221F2227221F20938800771FF6
:100970007727771F709387001816190614F0819552
:1009800061950C94890490919E00937081E009F028
:1009900080E008951092A6001092A5001092A40085
:1009A0001092A3001092B0001092AF001092EB00D2
:1009B0001092EA0080919E008E7F8D7F80939E0032
:1009C0008093FF00E0916A00F0916B000994633D11
:1009D00008F062ED6093C5001092C600833D08F0F8
:1009E00082ED8093B5001092B60008958093860042
:1009F000609385008093880060938700882311F0BE
:100A0000AA9A01C0AA98662311F0AB9A0895AB98F0
:100A1000089503C099B7906899BF9091AA00911169
:100A2000F9CF8F7320E4829FC00111246F73862B4E
:100A300090639093CA008093C9008091A90080645C
:100A40008093A90008951F920F920FB60F92112460
:100A50008F939F93809167008230B0F580918A00D8
:100A60008823D1F08C3338F48091E3009091E40036
:100A700096FF07C008C08091E3009091E40096FFC4
:100A800002C0979803C082B3805882BB80918A00CD
:100A9000815080938A0030C08091AA009798882363
:100AA00059F18091E3009091E400880F991F909391
:100AB000E4008093E30088E780938A008091AA0095
:100AC00081508093AA0018C08091AE00882391F0D5
:100AD0008091A90080FD05C088B390E4892788BB78
:100AE00003C085B3805885BB8091AE008150809350
:100AF000AE0002C0C69AAF9A9F918F910F900FBE21
:100B00000F901F9018951F920F920FB60F921124FD
:100B10008F9380916700833011F0863079F4809153
:100B2000A90084FD0BC08091A90085FF07C0B29980
:100B300005C08091FE008F5F8093FE0086B3809198
:100B4000A9008D7F8093A9008F910F900FBE0F9009
:100B50001F90189590936D0080936C00089590936A
:100B60006F0080936E0008958091C1009091C20043
:100B7000029708F441C18091A90084FD1CC18091B5
:100B80006700823009F468C030F4882371F0813046
:100B900009F017C111C0853009F4B0C0863009F4DE
:100BA000C6C0833009F00DC16FC089B78F7789BF88
:100BB0009798C69AAF9A05C18091AA0081112AC060
:100BC0008091A90086FF14C08091C9009091CA004D
:100BD0009093E4008093E3008EE08093AA008091DC
:100BE000A9008F7B8093A90089B7806889BF06C060
:100BF00089B78F7789BF9798C69AAF9A80918B00F3
:100C0000982F9F5F90938B00843138F082E080931F
:100C1000670003C089B7806889BF8091A90083FFFE
:100C2000D0C0E0916C00F0916D0080910201909134
:100C30000301099580910201909103019093B20004
:100C40008093B10010920301109202018091A900DB
:100C5000877F8093A900B5C089B78F7789BF9798A0
:100C6000C69AAF9A1092AE001092FE0010928D00BC
:100C700010928C008091A9008E7F80628093A900E1
:100C800083E080938B0079C08091AE00811110C009
:100C900080918B00982F9F5F90938B00833040F062
:100CA00089B7806889BF88E28093AE0010928B007C
:100CB0008091DF00882329F08091FE00823008F0C7
:100CC00004C08091FE00863038F01092FE0081E072
:100CD0008093DF0085E051C080918C0090918D0061
:100CE0009C012F5F3F4F30938D0020938C000E9717
:100CF00008F467C01092DF0085E052C089B78F7793
:100D000089BF9798C69AAF9A1092AE001092FE00D3
:100D100010928D0010928C008091A90081608062F9
:100D20008093A90083E080938B0086E026C08091A9
:100D3000AE00811110C080918B00982F9F5F90931F
:100D40008B00833040F089B7806889BF88E2809348
:100D5000AE0010928B008091E800882329F08091EA
:100D6000FE00823008F004C08091FE00863040F022
:100D70001092FE0081E08093E8008093670021C01C
:100D800080918C0090918D009C012F5F3F4F30939C
:100D90008D0020938C000E97A0F01092E80081E067
:100DA0008093670089B78F7789BF9798C69AAF9A63
:100DB0001092AE0006C010928D0010928C0010921E
:100DC0008B008091DF0090918E00981306C02091D7
:100DD0008F009091E800291759F080938E00809140
:100DE000E80080938F00E0916E00F0916F0009950C
:100DF0001092C2001092C10008951092670089B746
:100E00008F7789BF9798C69AAF9A1092E800109290
:100E1000DF00089589B78F7789BF9798C69AAF9AF0
:100E20001092E8001092DF0081E08093670008953F
:100E30008E989698BB98C398C698AF9808958E9A46
:100E4000969ABB98C39808958E989698BB9AC39A21
:100E500008958E9A969ABB9AC39A0895C49A8091DF
:100E6000B400843018F483E08093B4000895C498EB
:100E70008091B400843078F4811109C081E090E061
:100E800020919F00211105C080E090E002C081E028
:100E900090E08093B40008951F920F920FB60F92C6
:100EA00011242F933F934F935F936F937F938F936F
:100EB0009F93AF93BF9380919C0090919D0001966A
:100EC00090939D0080939C008091F5008F5F8093AC
:100ED000F5008091F800982F9F5F9093F80089307B
:100EE00008F447C18091CD0080FF09C08091CE00F9
:100EF0009091CF0001969093CF008093CE00809187
:100F0000CD0081FF09C08091D0009091D100019661
:100F10009093D1008093D0008091CD0082FF09C0D2
:100F20008091D2009091D30001969093D30080934A
:100F3000D2008091CD0083FF09C08091D4009091B0
:100F4000D50001969093D5008093D4008091CD0078
:100F500084FF09C08091D6009091D70001969093AC
:100F6000D7008093D6008091CD0085FF09C0809185
:100F7000D8009091D90001969093D9008093D80021
:100F80008091CD0086FF09C08091DA009091DB004E
:100F900001969093DB008093DA008091CD0087FF6B
:100FA00009C08091DC009091DD0001969093DD00F6
:100FB0008093DC008091E900982F9F5F9093E90077
:100FC000893CE8F08091C7009091C8009093FA00A6
:100FD0008093F9008091F1009091F2009093B80015
:100FE0008093B7001092C8001092C7001092F200D0
:100FF0001092F10081E08093B3001092E9004091DB
:10100000B400433008F052C0423081F580919F0017
:10101000811120C080919000909191009C012F5FE0
:101020003F4F309391002093900068EC70E00E9455
:10103000850F892BD9F5213A3F4028F0B998C198FE
:101040001092B40029C087B3842787BB88B3842754
:1010500088BB2CC084FD02C0B998C1981092910041
:101060001092900081E08093B40020C080919000A5
:1010700090919100813E2EE2920798F0413049F420
:101080001092B40080919F0084FD06C0B998C19869
:1010900003C082E08093B4001092910010929000FF
:1010A00005C0019690939100809390008091C100BB
:1010B0009091C200039748F48091C1009091C200C2
:1010C00001969093C2008093C1008091E100873324
:1010D00018F48F5F8093E1008091EC00843328F452
:1010E0008091EC008F5F8093EC008091E700982F57
:1010F0009F5F9093E7008330D0F14091E200242F6E
:1011000030E08091C5009091C6002817390759F04A
:101110002817390714F44F5F01C041504093E20093
:101120008091E2008ABD40910401242F30E080913B
:10113000B5009091B6002817390759F028173907DC
:1011400014F44F5F01C041504093040180910401A9
:1011500088BD80910401811104C08091E200882340
:1011600019F082EA8FBD01C01FBC1092E7001092F7
:10117000F8003091A90033FD47C080919200909112
:101180009300209194002F5F20939400263198F0D3
:1011900096FD0AC095FF08C0909303018093020159
:1011A000832F88608093A9008091A9008F7E80930F
:1011B000A90080E090E04091950036B3342732FFDB
:1011C0001FC0342F309530939500273040F4809124
:1011D000A9008F7E8093A90080E090E004C0009772
:1011E00011F02F3068F02091A90020612093A90010
:1011F00096FD02C0880F991F32FF81601092940003
:101200009093930080939200BF91AF919F918F91A3
:101210007F916F915F914F913F912F910F900FBEF2
:101220000F901F9018951092F5009091F500981767
:10123000E0F30895CF93DF93EC0104C08AE00E94AD
:10124000130921972097D1F7DF91CF91089501C01D
:1012500000000197E8F70895C82FF89497980E9426
:1012600018071092B6001092B5001092C6001092A6
:10127000C5001092B0001092AF001092EB001092D7
:10128000EA00109204011092E2001ABC18BC1FBCC4
:101290000E94370784E590E00E942E0D86E790E0DB
:1012A0000E942E0D8C2F81508230C0F481EB90E093
:1012B0000E942E0D8BED90E00E942E0DC13019F48E
:1012C0008DEE90E002C082EF90E00E942E0D88EF3C
:1012D00090E00E942E0D89E291E00CC0C33061F4D1
:1012E00088E691E00E942E0D85E891E00E942E0D87
:1012F00085EB91E00E942E0D8CEE91E00E942E0D68
:10130000D6E3D0939F000E946203CAE080E090E899
:101310000E942709C150D1F710929F000E946203DA
:10132000CAE08FEF9FEF0E942709C150D1F7E9CFA4
:101330008091E100823308F479C01092E10080913D
:10134000DE00811140C0809105019091060183303B
:10135000934038F48091F6009091F70083309340E9
:10136000F0F08091E0008F5F8093E0008AE080934E
:10137000DE001092B6001092B5001092C6001092D6
:10138000C5001092B0001092AF001092EB001092C6
:10139000EA0080919E00846080939E000895809171
:1013A0009E008B7F80939E008091AB00853628F055
:1013B0001092E0001092AB0006C08091E0008330F4
:1013C00010F083E018C080910501909106018639E4
:1013D000910598F48091B7009091B800892B69F439
:1013E0008091A5009091A600892B39F0809104018D
:1013F000873918F081E00E942C098091F6009091C5
:10140000F7008639910590F48091F9009091FA00E7
:10141000892B61F48091A3009091A400892B31F075
:101420008091E200873910F082E0E5CF8091B3002F
:10143000882309F492C18091DE00811189C18091D5
:10144000E000882331F08091AB008F5F8093AB0088
:1014500002C01092AB0040919E0041FF39C0209124
:10146000FB003091FC008091A1009091A200281710
:10147000390788F01092A6001092A5001092B000D3
:101480001092AF001092B6001092B500842F8D7F9D
:1014900080939E001DC02091FB003091FC00809144
:1014A000B9009091BA002817390790F08091A500F3
:1014B0009091A600969587959093A6008093A5009D
:1014C000469730F486E190E09093A6008093A500C3
:1014D00040919E0040FF39C02091ED003091EE0018
:1014E0008091C3009091C4002817390788F01092AA
:1014F000A4001092A3001092EB001092EA00109248
:10150000C6001092C500842F8E7F80939E001DC060
:101510002091ED003091EE008091EF009091F0006D
:101520002817390790F08091A3009091A400969518
:1015300087959093A4008093A300469730F486E1AA
:1015400090E09093A4008093A300809188009091F4
:101550008600891307C02091870090918500291784
:1015600009F451C04091A5005091A6002091A3001C
:101570003091A4004115510519F42115310501F1EF
:101580005093A8004093A7003093BC002093BB0069
:101590001092A6001092A5001092A4001092A30031
:1015A0001092C6001092C5001092B6001092B500BD
:1015B0001092B0001092AF001092EB001092EA006F
:1015C0009FB5911120C0609187000E94F604209180
:1015D000A7003091A8003093A6002093A500809129
:1015E000BB009091BC009093A4008093A30036951B
:1015F00027953093B0002093AF00969587959093F0
:10160000EB008093EA002091A5003091A600809124
:10161000B7009091B800A901481B590BCA0140912D
:10162000AF005091B000840F951F853A51E09507A7
:101630000CF402C084EA91E09093B0008093AF0074
:101640008091AF009091B0008C359E4F34F48CE5C2
:101650009EEF9093B0008093AF008091B70090917F
:10166000B800892B31F4232B21F41092B000109292
:10167000AF008091AF009091B00097FD01969595D5
:101680008795833D91050CF402C082ED90E0909324
:10169000B6008093B5008091B5009091B60097FF99
:1016A00004C01092B6001092B5002091A3003091B2
:1016B000A4008091F9009091FA00A901481B590BF0
:1016C000CA014091EA005091EB00840F951F853AC2
:1016D00051E095070CF402C084EA91E09093EB008E
:1016E0008093EA008091EA009091EB008C359E4F48
:1016F00034F48CE59EEF9093EB008093EA008091A8
:10170000F9009091FA00892B31F4232B21F41092E7
:10171000EB001092EA008091EA009091EB0097FDB7
:10172000019695958795833D91050CF402C082ED55
:1017300090E09093C6008093C5008091C500909181
:10174000C60097FF08C01092C6001092C50003C0E3
:1017500081508093DE001092B30080919E009091A2
:10176000FF00981739F08093FF00E0916A00F09134
:101770006B0009940895D49ADC9A0895DC98D49863
:1017800008950E94EE030E94B4050E94BA030C94CF
:101790009809FF920F931F93CF93DF93182FF62E84
:1017A000022F80919E008160826080939E009A014A
:1017B000A0EBB2E00E94BB0F24E630E040E050E036
:1017C0000E94990FE901C901845691099093F00094
:1017D0008093EF009093BA008093B9003093C400D7
:1017E0002093C3003093A2002093A100283231053A
:1017F000B0F484E190E09093C4008093C300909390
:10180000A2008093A1008AE090E09093F000809382
:10181000EF009093BA008093B900C8E2D0E0612F46
:10182000812F0E9489048F2D0E9498041092FC0041
:101830001092FB001092EE001092ED00D093CC00BD
:10184000C093CB00D093AD00C093AC0080919E00BC
:101850008093FF00E0916A00F0916B0009950111FF
:1018600003C006C00E94C10B0E94C3048823D1F3A9
:10187000DF91CF911F910F91FF900895EF92FF920A
:101880001F93CF93DF931F92CDB7DEB7162F7A0148
:1018900090919E009160926090939E001092F00053
:1018A0001092EF001092BA001092B900873180F0C8
:1018B00046EF5FEF481B5109440F551F4E0D5F1D4A
:1018C0005093F0004093EF005093BA004093B9005A
:1018D000A701425051095093C4004093C300509354
:1018E000A2004093A10098E2E916F104C0F444E19B
:1018F00050E05093C4004093C3005093A200409323
:10190000A1004AE050E05093F0004093EF00509364
:10191000BA004093B900A8E2EA2EF12C05C0E0E934
:10192000EE16E1E0FE0698F4893288F0A70156959C
:10193000479556954795C701841B950B9093F000EA
:101940008093EF009093BA008093B90088E21092E0
:10195000FC001092FB001092EE001092ED00682F38
:1019600029830E948904812F0E949804F092CC0060
:10197000E092CB00F092AD00E092AC0080919E002E
:101980008093FF00E0916A00F0916B000995298136
:10199000211103C006C00E94C10B0E94C30488230A
:1019A000D1F30F90DF91CF911F91FF90EF900895A9
:1019B000CF931BBA18BA15BAC1E0C2BB1ABA88E5F0
:1019C00087BB8CE884BB82EF81BBF894C598BD9A35
:1019D00097980E94180710BC8CE089B91BB886E85C
:1019E00080BD88E98AB917B886E186B910BE85E05E
:1019F00085BF80EE8BBF14BE8AE083BF83E68CBFB9
:101A000082EA8FBD81E18EBD82ED90E097BD86BDFB
:101A10001ABC18BC60E080E00E94F60489E085BD35
:101A20008EE683BD82E089BF8091A90081608093AA
:101A3000A900C09367007894CF9108955D9BFECF75
:101A40008CB90895CF93DF93EC0102C00E941E0D64
:101A500089918111FBCFDF91CF910895CF93DF93CF
:101A6000EC0102C00E941E0DFE012196849181119D
:101A7000F9CFDF91CF9108950F931F93CF93DF9309
:101A80001F92CDB7DEB78C01040F111D05C069830D
:101A90000E941E0D69816150F80181918F01882398
:101AA00011F06111F4CF0F90DF91CF911F910F9141
:101AB0000895CF93DF93CDB7DEB761970FB6F89453
:101AC000DEBF0FBECDBF462F50E0BE016F5F7F4F20
:101AD0000E94C70FCE0101960E94220D61960FB69B
:101AE000F894DEBF0FBECDBFDF91CF910895EF9286
:101AF000FF920F931F93CF93DF93CDB7DEB761971C
:101B00000FB6F894DEBF0FBECDBFE42E462F50E0D7
:101B10008E010F5F1F4FB8010E94C70FF80101909F
:101B20000020E9F73197E01BF10B8E2D8E1BF82E6C
:101B300018165CF4FA9480E30E941E0DF110FACF9F
:101B4000CE0101960E94220D06C0482F41956E2DB0
:101B5000C8010E943C0D61960FB6F894DEBF0FBE1F
:101B6000CDBFDF91CF911F910F91FF90EF9008951E
:101B70001F920F920FB60F9211242F938F939F9362
:101B8000EF93FF939091960080919700292F281B47
:101B90002032A8F480919800E82FF0E02CB1E85FA3
:101BA000FE4F20838F5F809398009F5F90939600F5
:101BB000813210F0109298001092070106C08CB18B
:101BC00080939A0081E080930701FF91EF919F91AC
:101BD0008F912F910F900FBE0F901F90189510921C
:101BE000070180919700909196009817A1F08F5F60
:101BF0008093970080919900813210F010929900A3
:101C000090919900E92FF0E0E85FFE4F80819F5F9F
:101C100090939900089580E0089510920701FC01C7
:101C200013C02F5F2093970090919900A92FB0E0E7
:101C3000A85FBE4F2C9121939F5F913218F490932F
:101C4000990002C0109299009E2F981B2091970036
:101C500030919600321711F0961718F3892F0895D6
:101C60008091960090919700891B089557988CB1A8
:101C700080939B0010929900109298001092970008
:101C80001092960010920701579A08950E94D80C5E
:101C90008FE30E94990384EC99E00E941A0984E280
:101CA0000E94990384E591E00E94B50388E291E0E7
:101CB0000E94AF050E942E070E9424070E9436034F
:101CC0000E94C10BFBCF0CD0E6C0DED040F0D5D0D7
:101CD00030F021F45F3F19F0C7C0511110C1CAC0E4
:101CE000EBD098F39923C9F35523B1F3951B550B0A
:101CF000BB27AA2762177307840738F09F5F5F4FDF
:101D0000220F331F441FAA1FA9F333D00E2E3AF01F
:101D1000E0E830D091505040E695001CCAF729D039
:101D2000FE2F27D0660F771F881FBB1F2617370788
:101D30004807AB07B0E809F0BB0B802DBF01FF27B8
:101D400093585F4F2AF09E3F510568F08DC0D7C071
:101D50005F3FECF3983EDCF3869577956795B795F2
:101D6000F7959F5FC9F7880F911D9695879597F90D
:101D70000895E1E0660F771F881FBB1F6217730786
:101D80008407BA0720F0621B730B840BBA0BEE1F9B
:101D900088F7E095089598D088F09F5790F0B92F74
:101DA0009927B751A0F0D1F0660F771F881F991FB0
:101DB0001AF0BA95C9F712C0B13081F09FD0B1E0E6
:101DC00008959CC0672F782F8827B85F39F0B93FF6
:101DD000CCF3869577956795B395D9F73EF49095B2
:101DE0008095709561957F4F8F4F9F4F0895E89430
:101DF00009C097FB3EF490958095709561957F4F53
:101E00008F4F9F4F9923A9F0F92F96E9BB27939500
:101E1000F695879577956795B795F111F8CFFAF410
:101E2000BB0F11F460FF1BC06F5F7F4F8F4F9F4F41
:101E300016C0882311F096E911C0772321F09EE89F
:101E4000872F762F05C0662371F096E8862F70E005
:101E500060E02AF09A95660F771F881FDAF7880FDF
:101E60009695879597F9089597F99F6780E870E0B0
:101E700060E008959FEF80EC089500240A94161600
:101E8000170618060906089500240A941216130668
:101E9000140605060895092E0394000C11F48823F6
:101EA00052F0BB0F40F4BF2B11F460FF04C06F5F12
:101EB0007F4F8F4F9F4F089557FD9058440F551FE8
:101EC00059F05F3F71F04795880F97FB991F61F0BC
:101ED0009F3F79F087950895121613061406551F33
:101EE000F2CF4695F1DF08C0161617061806991F9F
:101EF000F1CF86957105610508940895E894BB2794
:101F000066277727CB0197F90895AA1BBB1B51E1E0
:101F100007C0AA1FBB1FA617B70710F0A61BB70B59
:101F2000881F991F5A95A9F780959095BC01CD01FE
:101F30000895A1E21A2EAA1BBB1BFD010DC0AA1F0A
:101F4000BB1FEE1FFF1FA217B307E407F50720F022
:101F5000A21BB30BE40BF50B661F771F881F991F9D
:101F60001A9469F760957095809590959B01AC01E6
:101F7000BD01CF010895A29FB001B39FC001A39FEF
:101F800001D0B29F700D811D1124911D0895FB0198
:101F90009F01E8944230C4F04532B4F44A3029F449
:101FA00097FB1EF4909581959F4F642F77270E9491
:101FB000850F805D8A330CF0895D8193CB0100979A
:101FC000A1F716F45DE251931082C9010C94E80F59
:101FD000DC01FC01672F71917723E1F7329704C090
:101FE0007C916D9370836291AE17BF07C8F308951B
:041FF000F894FFCF93
:101FF400282800000001020153035403550356032B
:00000001FF
